{
  "contractName": "CardEntity",
  "abi": [
    {
      "anonymous": false,
      "inputs": [
        {
          "indexed": true,
          "internalType": "address",
          "name": "account",
          "type": "address"
        },
        {
          "indexed": true,
          "internalType": "address",
          "name": "operator",
          "type": "address"
        },
        {
          "indexed": false,
          "internalType": "bool",
          "name": "approved",
          "type": "bool"
        }
      ],
      "name": "ApprovalForAll",
      "type": "event"
    },
    {
      "anonymous": false,
      "inputs": [
        {
          "indexed": false,
          "internalType": "uint256",
          "name": "_id",
          "type": "uint256"
        },
        {
          "indexed": false,
          "internalType": "uint256",
          "name": "_dna",
          "type": "uint256"
        }
      ],
      "name": "NewCard",
      "type": "event"
    },
    {
      "anonymous": false,
      "inputs": [
        {
          "indexed": true,
          "internalType": "address",
          "name": "previousOwner",
          "type": "address"
        },
        {
          "indexed": true,
          "internalType": "address",
          "name": "newOwner",
          "type": "address"
        }
      ],
      "name": "OwnershipTransferred",
      "type": "event"
    },
    {
      "anonymous": false,
      "inputs": [
        {
          "indexed": true,
          "internalType": "address",
          "name": "operator",
          "type": "address"
        },
        {
          "indexed": true,
          "internalType": "address",
          "name": "from",
          "type": "address"
        },
        {
          "indexed": true,
          "internalType": "address",
          "name": "to",
          "type": "address"
        },
        {
          "indexed": false,
          "internalType": "uint256[]",
          "name": "ids",
          "type": "uint256[]"
        },
        {
          "indexed": false,
          "internalType": "uint256[]",
          "name": "values",
          "type": "uint256[]"
        }
      ],
      "name": "TransferBatch",
      "type": "event"
    },
    {
      "anonymous": false,
      "inputs": [
        {
          "indexed": true,
          "internalType": "address",
          "name": "operator",
          "type": "address"
        },
        {
          "indexed": true,
          "internalType": "address",
          "name": "from",
          "type": "address"
        },
        {
          "indexed": true,
          "internalType": "address",
          "name": "to",
          "type": "address"
        },
        {
          "indexed": false,
          "internalType": "uint256",
          "name": "id",
          "type": "uint256"
        },
        {
          "indexed": false,
          "internalType": "uint256",
          "name": "value",
          "type": "uint256"
        }
      ],
      "name": "TransferSingle",
      "type": "event"
    },
    {
      "anonymous": false,
      "inputs": [
        {
          "indexed": false,
          "internalType": "string",
          "name": "value",
          "type": "string"
        },
        {
          "indexed": true,
          "internalType": "uint256",
          "name": "id",
          "type": "uint256"
        }
      ],
      "name": "URI",
      "type": "event"
    },
    {
      "inputs": [],
      "name": "CommonEgg",
      "outputs": [
        {
          "internalType": "uint256",
          "name": "",
          "type": "uint256"
        }
      ],
      "stateMutability": "view",
      "type": "function"
    },
    {
      "inputs": [],
      "name": "RareEgg",
      "outputs": [
        {
          "internalType": "uint256",
          "name": "",
          "type": "uint256"
        }
      ],
      "stateMutability": "view",
      "type": "function"
    },
    {
      "inputs": [
        {
          "internalType": "address",
          "name": "account",
          "type": "address"
        },
        {
          "internalType": "uint256",
          "name": "id",
          "type": "uint256"
        }
      ],
      "name": "balanceOf",
      "outputs": [
        {
          "internalType": "uint256",
          "name": "",
          "type": "uint256"
        }
      ],
      "stateMutability": "view",
      "type": "function"
    },
    {
      "inputs": [
        {
          "internalType": "address[]",
          "name": "accounts",
          "type": "address[]"
        },
        {
          "internalType": "uint256[]",
          "name": "ids",
          "type": "uint256[]"
        }
      ],
      "name": "balanceOfBatch",
      "outputs": [
        {
          "internalType": "uint256[]",
          "name": "",
          "type": "uint256[]"
        }
      ],
      "stateMutability": "view",
      "type": "function"
    },
    {
      "inputs": [
        {
          "internalType": "uint256",
          "name": "",
          "type": "uint256"
        }
      ],
      "name": "cardBelongTo",
      "outputs": [
        {
          "internalType": "address",
          "name": "",
          "type": "address"
        }
      ],
      "stateMutability": "view",
      "type": "function"
    },
    {
      "inputs": [
        {
          "internalType": "address",
          "name": "account",
          "type": "address"
        },
        {
          "internalType": "address",
          "name": "operator",
          "type": "address"
        }
      ],
      "name": "isApprovedForAll",
      "outputs": [
        {
          "internalType": "bool",
          "name": "",
          "type": "bool"
        }
      ],
      "stateMutability": "view",
      "type": "function"
    },
    {
      "inputs": [
        {
          "internalType": "uint256",
          "name": "",
          "type": "uint256"
        }
      ],
      "name": "listCard",
      "outputs": [
        {
          "internalType": "uint256",
          "name": "dna",
          "type": "uint256"
        },
        {
          "internalType": "uint32",
          "name": "readyTime",
          "type": "uint32"
        }
      ],
      "stateMutability": "view",
      "type": "function"
    },
    {
      "inputs": [],
      "name": "owner",
      "outputs": [
        {
          "internalType": "address",
          "name": "",
          "type": "address"
        }
      ],
      "stateMutability": "view",
      "type": "function"
    },
    {
      "inputs": [],
      "name": "renounceOwnership",
      "outputs": [],
      "stateMutability": "nonpayable",
      "type": "function"
    },
    {
      "inputs": [
        {
          "internalType": "address",
          "name": "from",
          "type": "address"
        },
        {
          "internalType": "address",
          "name": "to",
          "type": "address"
        },
        {
          "internalType": "uint256[]",
          "name": "ids",
          "type": "uint256[]"
        },
        {
          "internalType": "uint256[]",
          "name": "amounts",
          "type": "uint256[]"
        },
        {
          "internalType": "bytes",
          "name": "data",
          "type": "bytes"
        }
      ],
      "name": "safeBatchTransferFrom",
      "outputs": [],
      "stateMutability": "nonpayable",
      "type": "function"
    },
    {
      "inputs": [
        {
          "internalType": "address",
          "name": "from",
          "type": "address"
        },
        {
          "internalType": "address",
          "name": "to",
          "type": "address"
        },
        {
          "internalType": "uint256",
          "name": "id",
          "type": "uint256"
        },
        {
          "internalType": "uint256",
          "name": "amount",
          "type": "uint256"
        },
        {
          "internalType": "bytes",
          "name": "data",
          "type": "bytes"
        }
      ],
      "name": "safeTransferFrom",
      "outputs": [],
      "stateMutability": "nonpayable",
      "type": "function"
    },
    {
      "inputs": [
        {
          "internalType": "address",
          "name": "operator",
          "type": "address"
        },
        {
          "internalType": "bool",
          "name": "approved",
          "type": "bool"
        }
      ],
      "name": "setApprovalForAll",
      "outputs": [],
      "stateMutability": "nonpayable",
      "type": "function"
    },
    {
      "inputs": [
        {
          "internalType": "bytes4",
          "name": "interfaceId",
          "type": "bytes4"
        }
      ],
      "name": "supportsInterface",
      "outputs": [
        {
          "internalType": "bool",
          "name": "",
          "type": "bool"
        }
      ],
      "stateMutability": "view",
      "type": "function"
    },
    {
      "inputs": [
        {
          "internalType": "address",
          "name": "newOwner",
          "type": "address"
        }
      ],
      "name": "transferOwnership",
      "outputs": [],
      "stateMutability": "nonpayable",
      "type": "function"
    },
    {
      "inputs": [
        {
          "internalType": "uint256",
          "name": "",
          "type": "uint256"
        }
      ],
      "name": "uri",
      "outputs": [
        {
          "internalType": "string",
          "name": "",
          "type": "string"
        }
      ],
      "stateMutability": "view",
      "type": "function"
    },
    {
      "inputs": [
        {
          "internalType": "uint8",
          "name": "_amount",
          "type": "uint8"
        }
      ],
      "name": "_cardInit",
      "outputs": [],
      "stateMutability": "nonpayable",
      "type": "function"
    },
    {
      "inputs": [
        {
          "internalType": "address",
          "name": "_userAddress",
          "type": "address"
        }
      ],
      "name": "_getAllCardOfUser",
      "outputs": [
        {
          "internalType": "uint256[]",
          "name": "",
          "type": "uint256[]"
        }
      ],
      "stateMutability": "view",
      "type": "function"
    }
  ],
  "bytecode": "0x6080604052600c600555600554600a6200001a9190620002ec565b60065561012c60075560006008553480156200003557600080fd5b5060405180602001604052806000815250620000666200005a6200007e60201b60201c565b6200008660201b60201c565b62000077816200014a60201b60201c565b5062000694565b600033905090565b60008060009054906101000a900473ffffffffffffffffffffffffffffffffffffffff169050816000806101000a81548173ffffffffffffffffffffffffffffffffffffffff021916908373ffffffffffffffffffffffffffffffffffffffff1602179055508173ffffffffffffffffffffffffffffffffffffffff168173ffffffffffffffffffffffffffffffffffffffff167f8be0079c531659141344cd1fd0a4f28419497f9722a3daafe3b4186f6b6457e060405160405180910390a35050565b80600390816200015b9190620005ad565b5050565b7f4e487b7100000000000000000000000000000000000000000000000000000000600052601160045260246000fd5b60008160011c9050919050565b6000808291508390505b6001851115620001ed57808604811115620001c557620001c46200015f565b5b6001851615620001d55780820291505b8081029050620001e5856200018e565b9450620001a5565b94509492505050565b600082620002085760019050620002db565b81620002185760009050620002db565b81600181146200023157600281146200023c5762000272565b6001915050620002db565b60ff8411156200025157620002506200015f565b5b8360020a9150848211156200026b576200026a6200015f565b5b50620002db565b5060208310610133831016604e8410600b8410161715620002ac5782820a905083811115620002a657620002a56200015f565b5b620002db565b620002bb84848460016200019b565b92509050818404811115620002d557620002d46200015f565b5b81810290505b9392505050565b6000819050919050565b6000620002f982620002e2565b91506200030683620002e2565b9250620003357fffffffffffffffffffffffffffffffffffffffffffffffffffffffffffffffff8484620001f6565b905092915050565b600081519050919050565b7f4e487b7100000000000000000000000000000000000000000000000000000000600052604160045260246000fd5b7f4e487b7100000000000000000000000000000000000000000000000000000000600052602260045260246000fd5b60006002820490506001821680620003bf57607f821691505b602082108103620003d557620003d462000377565b5b50919050565b60008190508160005260206000209050919050565b60006020601f8301049050919050565b600082821b905092915050565b6000600883026200043f7fffffffffffffffffffffffffffffffffffffffffffffffffffffffffffffffff8262000400565b6200044b868362000400565b95508019841693508086168417925050509392505050565b6000819050919050565b60006200048e620004886200048284620002e2565b62000463565b620002e2565b9050919050565b6000819050919050565b620004aa836200046d565b620004c2620004b98262000495565b8484546200040d565b825550505050565b600090565b620004d9620004ca565b620004e68184846200049f565b505050565b5b818110156200050e5762000502600082620004cf565b600181019050620004ec565b5050565b601f8211156200055d576200052781620003db565b6200053284620003f0565b8101602085101562000542578190505b6200055a6200055185620003f0565b830182620004eb565b50505b505050565b600082821c905092915050565b6000620005826000198460080262000562565b1980831691505092915050565b60006200059d83836200056f565b9150826002028217905092915050565b620005b8826200033d565b67ffffffffffffffff811115620005d457620005d362000348565b5b620005e08254620003a6565b620005ed82828562000512565b600060209050601f83116001811462000625576000841562000610578287015190505b6200061c85826200058f565b8655506200068c565b601f1984166200063586620003db565b60005b828110156200065f5784890151825560018201915060208501945060208101905062000638565b868310156200067f57848901516200067b601f8916826200056f565b8355505b6001600288020188555050505b505050505050565b61324980620006a46000396000f3fe608060405234801561001057600080fd5b506004361061010a5760003560e01c80635fc6b241116100a25780638da5cb5b116100715780638da5cb5b146102de578063a22cb465146102fc578063e985e9c514610318578063f242432a14610348578063f2fde38b146103645761010a565b80635fc6b24114610255578063715018a614610273578063811b09a21461027d578063883ff062146102ae5761010a565b80632583316c116100de5780632583316c146101cf5780632eb2c2d6146101ed5780633b679168146102095780634e1273f4146102255761010a565b8062fdd58e1461010f57806301ffc9a71461013f5780630e89341c1461016f5780631b5886c11461019f575b600080fd5b61012960048036038101906101249190611d22565b610380565b6040516101369190611d71565b60405180910390f35b61015960048036038101906101549190611de4565b610449565b6040516101669190611e2c565b60405180910390f35b61018960048036038101906101849190611e47565b61052b565b6040516101969190611f0d565b60405180910390f35b6101b960048036038101906101b49190611f2f565b6105bf565b6040516101c6919061201a565b60405180910390f35b6101d7610711565b6040516101e49190611d71565b60405180910390f35b61020760048036038101906102029190612239565b610717565b005b610223600480360381019061021e9190612341565b6107b8565b005b61023f600480360381019061023a9190612431565b6107f0565b60405161024c919061201a565b60405180910390f35b61025d610909565b60405161026a9190611d71565b60405180910390f35b61027b61090f565b005b61029760048036038101906102929190611e47565b610923565b6040516102a59291906124c8565b60405180910390f35b6102c860048036038101906102c39190611e47565b610967565b6040516102d59190612500565b60405180910390f35b6102e661099a565b6040516102f39190612500565b60405180910390f35b61031660048036038101906103119190612547565b6109c3565b005b610332600480360381019061032d9190612587565b6109d9565b60405161033f9190611e2c565b60405180910390f35b610362600480360381019061035d91906125c7565b610a6d565b005b61037e60048036038101906103799190611f2f565b610b0e565b005b60008073ffffffffffffffffffffffffffffffffffffffff168373ffffffffffffffffffffffffffffffffffffffff16036103f0576040517f08c379a00000000000000000000000000000000000000000000000000000000081526004016103e7906126d0565b60405180910390fd5b6001600083815260200190815260200160002060008473ffffffffffffffffffffffffffffffffffffffff1673ffffffffffffffffffffffffffffffffffffffff16815260200190815260200160002054905092915050565b60007fd9b67a26000000000000000000000000000000000000000000000000000000007bffffffffffffffffffffffffffffffffffffffffffffffffffffffff1916827bffffffffffffffffffffffffffffffffffffffffffffffffffffffff1916148061051457507f0e89341c000000000000000000000000000000000000000000000000000000007bffffffffffffffffffffffffffffffffffffffffffffffffffffffff1916827bffffffffffffffffffffffffffffffffffffffffffffffffffffffff1916145b80610524575061052382610b91565b5b9050919050565b60606003805461053a9061271f565b80601f01602080910402602001604051908101604052809291908181526020018280546105669061271f565b80156105b35780601f10610588576101008083540402835291602001916105b3565b820191906000526020600020905b81548152906001019060200180831161059657829003601f168201915b50505050509050919050565b60606000600a60008473ffffffffffffffffffffffffffffffffffffffff1673ffffffffffffffffffffffffffffffffffffffff1681526020019081526020016000205467ffffffffffffffff81111561061c5761061b612041565b5b60405190808252806020026020018201604052801561064a5781602001602082028036833780820191505090505b5090506000805b600480549050811015610706573373ffffffffffffffffffffffffffffffffffffffff166009600083815260200190815260200160002060009054906101000a900473ffffffffffffffffffffffffffffffffffffffff1673ffffffffffffffffffffffffffffffffffffffff16036106f357808383815181106106d8576106d7612750565b5b60200260200101818152505081806106ef906127ae565b9250505b80806106fe906127ae565b915050610651565b508192505050919050565b6103fe81565b61071f610bfb565b73ffffffffffffffffffffffffffffffffffffffff168573ffffffffffffffffffffffffffffffffffffffff16148061076557506107648561075f610bfb565b6109d9565b5b6107a4576040517f08c379a000000000000000000000000000000000000000000000000000000000815260040161079b90612868565b60405180910390fd5b6107b18585858585610c03565b5050505050565b6107c0610f27565b60005b8160ff168160ff1610156107ec576107d9610fa5565b80806107e490612888565b9150506107c3565b5050565b60608151835114610836576040517f08c379a000000000000000000000000000000000000000000000000000000000815260040161082d90612923565b60405180910390fd5b6000835167ffffffffffffffff81111561085357610852612041565b5b6040519080825280602002602001820160405280156108815781602001602082028036833780820191505090505b50905060005b84518110156108fe576108ce8582815181106108a6576108a5612750565b5b60200260200101518583815181106108c1576108c0612750565b5b6020026020010151610380565b8282815181106108e1576108e0612750565b5b602002602001018181525050806108f7906127ae565b9050610887565b508091505092915050565b6103fd81565b610917610f27565b6109216000611144565b565b6004818154811061093357600080fd5b90600052602060002090600202016000915090508060000154908060010160009054906101000a900463ffffffff16905082565b60096020528060005260406000206000915054906101000a900473ffffffffffffffffffffffffffffffffffffffff1681565b60008060009054906101000a900473ffffffffffffffffffffffffffffffffffffffff16905090565b6109d56109ce610bfb565b8383611208565b5050565b6000600260008473ffffffffffffffffffffffffffffffffffffffff1673ffffffffffffffffffffffffffffffffffffffff16815260200190815260200160002060008373ffffffffffffffffffffffffffffffffffffffff1673ffffffffffffffffffffffffffffffffffffffff16815260200190815260200160002060009054906101000a900460ff16905092915050565b610a75610bfb565b73ffffffffffffffffffffffffffffffffffffffff168573ffffffffffffffffffffffffffffffffffffffff161480610abb5750610aba85610ab5610bfb565b6109d9565b5b610afa576040517f08c379a0000000000000000000000000000000000000000000000000000000008152600401610af190612868565b60405180910390fd5b610b078585858585611374565b5050505050565b610b16610f27565b600073ffffffffffffffffffffffffffffffffffffffff168173ffffffffffffffffffffffffffffffffffffffff1603610b85576040517f08c379a0000000000000000000000000000000000000000000000000000000008152600401610b7c906129b5565b60405180910390fd5b610b8e81611144565b50565b60007f01ffc9a7000000000000000000000000000000000000000000000000000000007bffffffffffffffffffffffffffffffffffffffffffffffffffffffff1916827bffffffffffffffffffffffffffffffffffffffffffffffffffffffff1916149050919050565b600033905090565b8151835114610c47576040517f08c379a0000000000000000000000000000000000000000000000000000000008152600401610c3e90612a47565b60405180910390fd5b600073ffffffffffffffffffffffffffffffffffffffff168473ffffffffffffffffffffffffffffffffffffffff1603610cb6576040517f08c379a0000000000000000000000000000000000000000000000000000000008152600401610cad90612ad9565b60405180910390fd5b6000610cc0610bfb565b9050610cd0818787878787611612565b60005b8451811015610e84576000858281518110610cf157610cf0612750565b5b602002602001015190506000858381518110610d1057610d0f612750565b5b6020026020010151905060006001600084815260200190815260200160002060008b73ffffffffffffffffffffffffffffffffffffffff1673ffffffffffffffffffffffffffffffffffffffff16815260200190815260200160002054905081811015610db2576040517f08c379a0000000000000000000000000000000000000000000000000000000008152600401610da990612b6b565b60405180910390fd5b8181036001600085815260200190815260200160002060008c73ffffffffffffffffffffffffffffffffffffffff1673ffffffffffffffffffffffffffffffffffffffff16815260200190815260200160002081905550816001600085815260200190815260200160002060008b73ffffffffffffffffffffffffffffffffffffffff1673ffffffffffffffffffffffffffffffffffffffff1681526020019081526020016000206000828254610e699190612b8b565b9250508190555050505080610e7d906127ae565b9050610cd3565b508473ffffffffffffffffffffffffffffffffffffffff168673ffffffffffffffffffffffffffffffffffffffff168273ffffffffffffffffffffffffffffffffffffffff167f4a39dc06d4c0dbc64b70af90fd698a233a518aa5d07e595d983b8c0526c8f7fb8787604051610efb929190612be1565b60405180910390a4610f1181878787878761161a565b610f1f818787878787611622565b505050505050565b610f2f610bfb565b73ffffffffffffffffffffffffffffffffffffffff16610f4d61099a565b73ffffffffffffffffffffffffffffffffffffffff1614610fa3576040517f08c379a0000000000000000000000000000000000000000000000000000000008152600401610f9a90612c64565b60405180910390fd5b565b6000610fb26006546117f9565b9050600060048054905090506004604051806040016040528084815260200160075442610fdf9190612b8b565b63ffffffff1681525090806001815401808255809150506001900390600052602060002090600202016000909190919091506000820151816000015560208201518160010160006101000a81548163ffffffff021916908363ffffffff1602179055505050336009600083815260200190815260200160002060006101000a81548173ffffffffffffffffffffffffffffffffffffffff021916908373ffffffffffffffffffffffffffffffffffffffff160217905550600a60003373ffffffffffffffffffffffffffffffffffffffff1673ffffffffffffffffffffffffffffffffffffffff16815260200190815260200160002060008154809291906110e6906127ae565b91905055506111073382600160405180602001604052806000815250611855565b7fcf8e4e7c2fdf9e4b6dd5b064faecd0635e5c3c579db2d4addecaefa6eb59a7dd8183604051611138929190612c84565b60405180910390a15050565b60008060009054906101000a900473ffffffffffffffffffffffffffffffffffffffff169050816000806101000a81548173ffffffffffffffffffffffffffffffffffffffff021916908373ffffffffffffffffffffffffffffffffffffffff1602179055508173ffffffffffffffffffffffffffffffffffffffff168173ffffffffffffffffffffffffffffffffffffffff167f8be0079c531659141344cd1fd0a4f28419497f9722a3daafe3b4186f6b6457e060405160405180910390a35050565b8173ffffffffffffffffffffffffffffffffffffffff168373ffffffffffffffffffffffffffffffffffffffff1603611276576040517f08c379a000000000000000000000000000000000000000000000000000000000815260040161126d90612d1f565b60405180910390fd5b80600260008573ffffffffffffffffffffffffffffffffffffffff1673ffffffffffffffffffffffffffffffffffffffff16815260200190815260200160002060008473ffffffffffffffffffffffffffffffffffffffff1673ffffffffffffffffffffffffffffffffffffffff16815260200190815260200160002060006101000a81548160ff0219169083151502179055508173ffffffffffffffffffffffffffffffffffffffff168373ffffffffffffffffffffffffffffffffffffffff167f17307eab39ab6107e8899845ad3d59bd9653f200f220920489ca2b5937696c31836040516113679190611e2c565b60405180910390a3505050565b600073ffffffffffffffffffffffffffffffffffffffff168473ffffffffffffffffffffffffffffffffffffffff16036113e3576040517f08c379a00000000000000000000000000000000000000000000000000000000081526004016113da90612ad9565b60405180910390fd5b60006113ed610bfb565b905060006113fa85611a06565b9050600061140785611a06565b9050611417838989858589611612565b60006001600088815260200190815260200160002060008a73ffffffffffffffffffffffffffffffffffffffff1673ffffffffffffffffffffffffffffffffffffffff168152602001908152602001600020549050858110156114af576040517f08c379a00000000000000000000000000000000000000000000000000000000081526004016114a690612b6b565b60405180910390fd5b8581036001600089815260200190815260200160002060008b73ffffffffffffffffffffffffffffffffffffffff1673ffffffffffffffffffffffffffffffffffffffff16815260200190815260200160002081905550856001600089815260200190815260200160002060008a73ffffffffffffffffffffffffffffffffffffffff1673ffffffffffffffffffffffffffffffffffffffff16815260200190815260200160002060008282546115669190612b8b565b925050819055508773ffffffffffffffffffffffffffffffffffffffff168973ffffffffffffffffffffffffffffffffffffffff168573ffffffffffffffffffffffffffffffffffffffff167fc3d58168c5ae7397731d063d5bbf3d657854427343f4c083240f7aacaa2d0f628a8a6040516115e3929190612c84565b60405180910390a46115f9848a8a86868a61161a565b611607848a8a8a8a8a611a80565b505050505050505050565b505050505050565b505050505050565b6116418473ffffffffffffffffffffffffffffffffffffffff16611c57565b156117f1578373ffffffffffffffffffffffffffffffffffffffff1663bc197c8187878686866040518663ffffffff1660e01b8152600401611687959493929190612d94565b6020604051808303816000875af19250505080156116c357506040513d601f19601f820116820180604052508101906116c09190612e11565b60015b611768576116cf612e4b565b806308c379a00361172b57506116e3612e6d565b806116ee575061172d565b806040517f08c379a00000000000000000000000000000000000000000000000000000000081526004016117229190611f0d565b60405180910390fd5b505b6040517f08c379a000000000000000000000000000000000000000000000000000000000815260040161175f90612f6f565b60405180910390fd5b63bc197c8160e01b7bffffffffffffffffffffffffffffffffffffffffffffffffffffffff1916817bffffffffffffffffffffffffffffffffffffffffffffffffffffffff1916146117ef576040517f08c379a00000000000000000000000000000000000000000000000000000000081526004016117e690613001565b60405180910390fd5b505b505050505050565b60006008600081548092919061180e906127ae565b919050555081423360085460405160200161182b9392919061308a565b6040516020818303038152906040528051906020012060001c61184e91906130f6565b9050919050565b600073ffffffffffffffffffffffffffffffffffffffff168473ffffffffffffffffffffffffffffffffffffffff16036118c4576040517f08c379a00000000000000000000000000000000000000000000000000000000081526004016118bb90613199565b60405180910390fd5b60006118ce610bfb565b905060006118db85611a06565b905060006118e885611a06565b90506118f983600089858589611612565b846001600088815260200190815260200160002060008973ffffffffffffffffffffffffffffffffffffffff1673ffffffffffffffffffffffffffffffffffffffff16815260200190815260200160002060008282546119599190612b8b565b925050819055508673ffffffffffffffffffffffffffffffffffffffff16600073ffffffffffffffffffffffffffffffffffffffff168473ffffffffffffffffffffffffffffffffffffffff167fc3d58168c5ae7397731d063d5bbf3d657854427343f4c083240f7aacaa2d0f6289896040516119d7929190612c84565b60405180910390a46119ee8360008985858961161a565b6119fd83600089898989611a80565b50505050505050565b60606000600167ffffffffffffffff811115611a2557611a24612041565b5b604051908082528060200260200182016040528015611a535781602001602082028036833780820191505090505b5090508281600081518110611a6b57611a6a612750565b5b60200260200101818152505080915050919050565b611a9f8473ffffffffffffffffffffffffffffffffffffffff16611c57565b15611c4f578373ffffffffffffffffffffffffffffffffffffffff1663f23a6e6187878686866040518663ffffffff1660e01b8152600401611ae59594939291906131b9565b6020604051808303816000875af1925050508015611b2157506040513d601f19601f82011682018060405250810190611b1e9190612e11565b60015b611bc657611b2d612e4b565b806308c379a003611b895750611b41612e6d565b80611b4c5750611b8b565b806040517f08c379a0000000000000000000000000000000000000000000000000000000008152600401611b809190611f0d565b60405180910390fd5b505b6040517f08c379a0000000000000000000000000000000000000000000000000000000008152600401611bbd90612f6f565b60405180910390fd5b63f23a6e6160e01b7bffffffffffffffffffffffffffffffffffffffffffffffffffffffff1916817bffffffffffffffffffffffffffffffffffffffffffffffffffffffff191614611c4d576040517f08c379a0000000000000000000000000000000000000000000000000000000008152600401611c4490613001565b60405180910390fd5b505b505050505050565b6000808273ffffffffffffffffffffffffffffffffffffffff163b119050919050565b6000604051905090565b600080fd5b600080fd5b600073ffffffffffffffffffffffffffffffffffffffff82169050919050565b6000611cb982611c8e565b9050919050565b611cc981611cae565b8114611cd457600080fd5b50565b600081359050611ce681611cc0565b92915050565b6000819050919050565b611cff81611cec565b8114611d0a57600080fd5b50565b600081359050611d1c81611cf6565b92915050565b60008060408385031215611d3957611d38611c84565b5b6000611d4785828601611cd7565b9250506020611d5885828601611d0d565b9150509250929050565b611d6b81611cec565b82525050565b6000602082019050611d866000830184611d62565b92915050565b60007fffffffff0000000000000000000000000000000000000000000000000000000082169050919050565b611dc181611d8c565b8114611dcc57600080fd5b50565b600081359050611dde81611db8565b92915050565b600060208284031215611dfa57611df9611c84565b5b6000611e0884828501611dcf565b91505092915050565b60008115159050919050565b611e2681611e11565b82525050565b6000602082019050611e416000830184611e1d565b92915050565b600060208284031215611e5d57611e5c611c84565b5b6000611e6b84828501611d0d565b91505092915050565b600081519050919050565b600082825260208201905092915050565b60005b83811015611eae578082015181840152602081019050611e93565b83811115611ebd576000848401525b50505050565b6000601f19601f8301169050919050565b6000611edf82611e74565b611ee98185611e7f565b9350611ef9818560208601611e90565b611f0281611ec3565b840191505092915050565b60006020820190508181036000830152611f278184611ed4565b905092915050565b600060208284031215611f4557611f44611c84565b5b6000611f5384828501611cd7565b91505092915050565b600081519050919050565b600082825260208201905092915050565b6000819050602082019050919050565b611f9181611cec565b82525050565b6000611fa38383611f88565b60208301905092915050565b6000602082019050919050565b6000611fc782611f5c565b611fd18185611f67565b9350611fdc83611f78565b8060005b8381101561200d578151611ff48882611f97565b9750611fff83611faf565b925050600181019050611fe0565b5085935050505092915050565b600060208201905081810360008301526120348184611fbc565b905092915050565b600080fd5b7f4e487b7100000000000000000000000000000000000000000000000000000000600052604160045260246000fd5b61207982611ec3565b810181811067ffffffffffffffff8211171561209857612097612041565b5b80604052505050565b60006120ab611c7a565b90506120b78282612070565b919050565b600067ffffffffffffffff8211156120d7576120d6612041565b5b602082029050602081019050919050565b600080fd5b60006121006120fb846120bc565b6120a1565b90508083825260208201905060208402830185811115612123576121226120e8565b5b835b8181101561214c57806121388882611d0d565b845260208401935050602081019050612125565b5050509392505050565b600082601f83011261216b5761216a61203c565b5b813561217b8482602086016120ed565b91505092915050565b600080fd5b600067ffffffffffffffff8211156121a4576121a3612041565b5b6121ad82611ec3565b9050602081019050919050565b82818337600083830152505050565b60006121dc6121d784612189565b6120a1565b9050828152602081018484840111156121f8576121f7612184565b5b6122038482856121ba565b509392505050565b600082601f8301126122205761221f61203c565b5b81356122308482602086016121c9565b91505092915050565b600080600080600060a0868803121561225557612254611c84565b5b600061226388828901611cd7565b955050602061227488828901611cd7565b945050604086013567ffffffffffffffff81111561229557612294611c89565b5b6122a188828901612156565b935050606086013567ffffffffffffffff8111156122c2576122c1611c89565b5b6122ce88828901612156565b925050608086013567ffffffffffffffff8111156122ef576122ee611c89565b5b6122fb8882890161220b565b9150509295509295909350565b600060ff82169050919050565b61231e81612308565b811461232957600080fd5b50565b60008135905061233b81612315565b92915050565b60006020828403121561235757612356611c84565b5b60006123658482850161232c565b91505092915050565b600067ffffffffffffffff82111561238957612388612041565b5b602082029050602081019050919050565b60006123ad6123a88461236e565b6120a1565b905080838252602082019050602084028301858111156123d0576123cf6120e8565b5b835b818110156123f957806123e58882611cd7565b8452602084019350506020810190506123d2565b5050509392505050565b600082601f8301126124185761241761203c565b5b813561242884826020860161239a565b91505092915050565b6000806040838503121561244857612447611c84565b5b600083013567ffffffffffffffff81111561246657612465611c89565b5b61247285828601612403565b925050602083013567ffffffffffffffff81111561249357612492611c89565b5b61249f85828601612156565b9150509250929050565b600063ffffffff82169050919050565b6124c2816124a9565b82525050565b60006040820190506124dd6000830185611d62565b6124ea60208301846124b9565b9392505050565b6124fa81611cae565b82525050565b600060208201905061251560008301846124f1565b92915050565b61252481611e11565b811461252f57600080fd5b50565b6000813590506125418161251b565b92915050565b6000806040838503121561255e5761255d611c84565b5b600061256c85828601611cd7565b925050602061257d85828601612532565b9150509250929050565b6000806040838503121561259e5761259d611c84565b5b60006125ac85828601611cd7565b92505060206125bd85828601611cd7565b9150509250929050565b600080600080600060a086880312156125e3576125e2611c84565b5b60006125f188828901611cd7565b955050602061260288828901611cd7565b945050604061261388828901611d0d565b935050606061262488828901611d0d565b925050608086013567ffffffffffffffff81111561264557612644611c89565b5b6126518882890161220b565b9150509295509295909350565b7f455243313135353a2061646472657373207a65726f206973206e6f742061207660008201527f616c6964206f776e657200000000000000000000000000000000000000000000602082015250565b60006126ba602a83611e7f565b91506126c58261265e565b604082019050919050565b600060208201905081810360008301526126e9816126ad565b9050919050565b7f4e487b7100000000000000000000000000000000000000000000000000000000600052602260045260246000fd5b6000600282049050600182168061273757607f821691505b60208210810361274a576127496126f0565b5b50919050565b7f4e487b7100000000000000000000000000000000000000000000000000000000600052603260045260246000fd5b7f4e487b7100000000000000000000000000000000000000000000000000000000600052601160045260246000fd5b60006127b982611cec565b91507fffffffffffffffffffffffffffffffffffffffffffffffffffffffffffffffff82036127eb576127ea61277f565b5b600182019050919050565b7f455243313135353a2063616c6c6572206973206e6f7420746f6b656e206f776e60008201527f6572206e6f7220617070726f7665640000000000000000000000000000000000602082015250565b6000612852602f83611e7f565b915061285d826127f6565b604082019050919050565b6000602082019050818103600083015261288181612845565b9050919050565b600061289382612308565b915060ff82036128a6576128a561277f565b5b600182019050919050565b7f455243313135353a206163636f756e747320616e6420696473206c656e67746860008201527f206d69736d617463680000000000000000000000000000000000000000000000602082015250565b600061290d602983611e7f565b9150612918826128b1565b604082019050919050565b6000602082019050818103600083015261293c81612900565b9050919050565b7f4f776e61626c653a206e6577206f776e657220697320746865207a65726f206160008201527f6464726573730000000000000000000000000000000000000000000000000000602082015250565b600061299f602683611e7f565b91506129aa82612943565b604082019050919050565b600060208201905081810360008301526129ce81612992565b9050919050565b7f455243313135353a2069647320616e6420616d6f756e7473206c656e6774682060008201527f6d69736d61746368000000000000000000000000000000000000000000000000602082015250565b6000612a31602883611e7f565b9150612a3c826129d5565b604082019050919050565b60006020820190508181036000830152612a6081612a24565b9050919050565b7f455243313135353a207472616e7366657220746f20746865207a65726f20616460008201527f6472657373000000000000000000000000000000000000000000000000000000602082015250565b6000612ac3602583611e7f565b9150612ace82612a67565b604082019050919050565b60006020820190508181036000830152612af281612ab6565b9050919050565b7f455243313135353a20696e73756666696369656e742062616c616e636520666f60008201527f72207472616e7366657200000000000000000000000000000000000000000000602082015250565b6000612b55602a83611e7f565b9150612b6082612af9565b604082019050919050565b60006020820190508181036000830152612b8481612b48565b9050919050565b6000612b9682611cec565b9150612ba183611cec565b9250827fffffffffffffffffffffffffffffffffffffffffffffffffffffffffffffffff03821115612bd657612bd561277f565b5b828201905092915050565b60006040820190508181036000830152612bfb8185611fbc565b90508181036020830152612c0f8184611fbc565b90509392505050565b7f4f776e61626c653a2063616c6c6572206973206e6f7420746865206f776e6572600082015250565b6000612c4e602083611e7f565b9150612c5982612c18565b602082019050919050565b60006020820190508181036000830152612c7d81612c41565b9050919050565b6000604082019050612c996000830185611d62565b612ca66020830184611d62565b9392505050565b7f455243313135353a2073657474696e6720617070726f76616c2073746174757360008201527f20666f722073656c660000000000000000000000000000000000000000000000602082015250565b6000612d09602983611e7f565b9150612d1482612cad565b604082019050919050565b60006020820190508181036000830152612d3881612cfc565b9050919050565b600081519050919050565b600082825260208201905092915050565b6000612d6682612d3f565b612d708185612d4a565b9350612d80818560208601611e90565b612d8981611ec3565b840191505092915050565b600060a082019050612da960008301886124f1565b612db660208301876124f1565b8181036040830152612dc88186611fbc565b90508181036060830152612ddc8185611fbc565b90508181036080830152612df08184612d5b565b90509695505050505050565b600081519050612e0b81611db8565b92915050565b600060208284031215612e2757612e26611c84565b5b6000612e3584828501612dfc565b91505092915050565b60008160e01c9050919050565b600060033d1115612e6a5760046000803e612e67600051612e3e565b90505b90565b600060443d10612efa57612e7f611c7a565b60043d036004823e80513d602482011167ffffffffffffffff82111715612ea7575050612efa565b808201805167ffffffffffffffff811115612ec55750505050612efa565b80602083010160043d038501811115612ee2575050505050612efa565b612ef182602001850186612070565b82955050505050505b90565b7f455243313135353a207472616e7366657220746f206e6f6e204552433131353560008201527f526563656976657220696d706c656d656e746572000000000000000000000000602082015250565b6000612f59603483611e7f565b9150612f6482612efd565b604082019050919050565b60006020820190508181036000830152612f8881612f4c565b9050919050565b7f455243313135353a204552433131353552656365697665722072656a6563746560008201527f6420746f6b656e73000000000000000000000000000000000000000000000000602082015250565b6000612feb602883611e7f565b9150612ff682612f8f565b604082019050919050565b6000602082019050818103600083015261301a81612fde565b9050919050565b6000819050919050565b61303c61303782611cec565b613021565b82525050565b60008160601b9050919050565b600061305a82613042565b9050919050565b600061306c8261304f565b9050919050565b61308461307f82611cae565b613061565b82525050565b6000613096828661302b565b6020820191506130a68285613073565b6014820191506130b6828461302b565b602082019150819050949350505050565b7f4e487b7100000000000000000000000000000000000000000000000000000000600052601260045260246000fd5b600061310182611cec565b915061310c83611cec565b92508261311c5761311b6130c7565b5b828206905092915050565b7f455243313135353a206d696e7420746f20746865207a65726f2061646472657360008201527f7300000000000000000000000000000000000000000000000000000000000000602082015250565b6000613183602183611e7f565b915061318e82613127565b604082019050919050565b600060208201905081810360008301526131b281613176565b9050919050565b600060a0820190506131ce60008301886124f1565b6131db60208301876124f1565b6131e86040830186611d62565b6131f56060830185611d62565b81810360808301526132078184612d5b565b9050969550505050505056fea26469706673582212205b5bb580a93515dbbecdd21a2c35b3bef075f426f3b65286c682d821abe4ceca64736f6c634300080f0033",
  "immutableReferences": {},
  "source": "// SPDX-License-Identifier: MIT\npragma solidity >=0.8.7;\n\nimport \"@openzeppelin/contracts/access/Ownable.sol\";\nimport \"./Item.sol\";\n\ncontract CardEntity is Ownable, GameItems {\n\n    event NewCard(uint _id, uint _dna);\n\n    modifier onlyOwnerOfCard(uint _cardId) {\n        require(msg.sender == cardBelongTo[_cardId], \"you are not the owner\");\n        _;\n    }\n\n    uint dnaDigits = 12;\n    uint dnaMod = 10 ** dnaDigits;\n    uint cooldownTime = 5 minutes;\n    uint randNonce = 0;\n\n    mapping (uint => address) public cardBelongTo;\n    mapping (address => uint) userCountCard;\n\n    function _random(uint _mod) internal returns (uint) {\n        randNonce++; \n        return uint(keccak256(abi.encodePacked(block.timestamp, msg.sender, randNonce))) % _mod; \n    }\n\n    function _cardInit(uint8 _amount) external onlyOwner {\n        for (uint8 i = 0; i< _amount; i++) \n            _createCard();\n    }\n\n    function _createCard() internal {\n        uint dna = _random(dnaMod);\n        uint id = listCard.length;\n        listCard.push(Card(dna, uint32(block.timestamp + cooldownTime)));\n        \n        cardBelongTo[id] = msg.sender;\n        userCountCard[msg.sender]++;\n\n        _mint(msg.sender, id, 1, \"\");\n        emit NewCard(id, dna);\n    }\n\n    function _getAllCardOfUser(address _userAddress) external view returns (uint[] memory) {\n        uint[] memory result = new uint[](userCountCard[_userAddress]);\n        uint256 j=0;\n        for(uint i = 0; i < listCard.length; i++) {\n            if (cardBelongTo[i] == msg.sender) {\n                result[j] = i;\n                j++;\n            }\n        }\n        return result;\n    }\n\n}\n",
  "sourcePath": "/home/ca00691/Desktop/basic-game-card/contracts/CardEntity.sol",
  "compiler": {
    "name": "solc",
    "version": "0.8.15+commit.e14f2714.Emscripten.clang"
  },
  "schemaVersion": "3.4.8",
  "updatedAt": "2022-07-19T09:00:15.836Z",
  "devdoc": {
    "kind": "dev",
    "methods": {
      "balanceOf(address,uint256)": {
        "details": "See {IERC1155-balanceOf}. Requirements: - `account` cannot be the zero address."
      },
      "balanceOfBatch(address[],uint256[])": {
        "details": "See {IERC1155-balanceOfBatch}. Requirements: - `accounts` and `ids` must have the same length."
      },
      "isApprovedForAll(address,address)": {
        "details": "See {IERC1155-isApprovedForAll}."
      },
      "owner()": {
        "details": "Returns the address of the current owner."
      },
      "renounceOwnership()": {
        "details": "Leaves the contract without owner. It will not be possible to call `onlyOwner` functions anymore. Can only be called by the current owner. NOTE: Renouncing ownership will leave the contract without an owner, thereby removing any functionality that is only available to the owner."
      },
      "safeBatchTransferFrom(address,address,uint256[],uint256[],bytes)": {
        "details": "See {IERC1155-safeBatchTransferFrom}."
      },
      "safeTransferFrom(address,address,uint256,uint256,bytes)": {
        "details": "See {IERC1155-safeTransferFrom}."
      },
      "setApprovalForAll(address,bool)": {
        "details": "See {IERC1155-setApprovalForAll}."
      },
      "supportsInterface(bytes4)": {
        "details": "See {IERC165-supportsInterface}."
      },
      "transferOwnership(address)": {
        "details": "Transfers ownership of the contract to a new account (`newOwner`). Can only be called by the current owner."
      },
      "uri(uint256)": {
        "details": "See {IERC1155MetadataURI-uri}. This implementation returns the same URI for *all* token types. It relies on the token type ID substitution mechanism https://eips.ethereum.org/EIPS/eip-1155#metadata[defined in the EIP]. Clients calling this function must replace the `\\{id\\}` substring with the actual token type ID."
      }
    },
    "version": 1
  },
  "userdoc": {
    "kind": "user",
    "methods": {},
    "version": 1
  }
}