{
  "contractName": "CardBattle",
  "abi": [
    {
      "anonymous": false,
      "inputs": [
        {
          "indexed": true,
          "internalType": "address",
          "name": "account",
          "type": "address"
        },
        {
          "indexed": true,
          "internalType": "address",
          "name": "operator",
          "type": "address"
        },
        {
          "indexed": false,
          "internalType": "bool",
          "name": "approved",
          "type": "bool"
        }
      ],
      "name": "ApprovalForAll",
      "type": "event"
    },
    {
      "anonymous": false,
      "inputs": [
        {
          "indexed": false,
          "internalType": "uint256",
          "name": "_id",
          "type": "uint256"
        },
        {
          "indexed": false,
          "internalType": "uint256",
          "name": "_dna",
          "type": "uint256"
        }
      ],
      "name": "NewCard",
      "type": "event"
    },
    {
      "anonymous": false,
      "inputs": [
        {
          "indexed": true,
          "internalType": "address",
          "name": "previousOwner",
          "type": "address"
        },
        {
          "indexed": true,
          "internalType": "address",
          "name": "newOwner",
          "type": "address"
        }
      ],
      "name": "OwnershipTransferred",
      "type": "event"
    },
    {
      "anonymous": false,
      "inputs": [
        {
          "indexed": true,
          "internalType": "address",
          "name": "operator",
          "type": "address"
        },
        {
          "indexed": true,
          "internalType": "address",
          "name": "from",
          "type": "address"
        },
        {
          "indexed": true,
          "internalType": "address",
          "name": "to",
          "type": "address"
        },
        {
          "indexed": false,
          "internalType": "uint256[]",
          "name": "ids",
          "type": "uint256[]"
        },
        {
          "indexed": false,
          "internalType": "uint256[]",
          "name": "values",
          "type": "uint256[]"
        }
      ],
      "name": "TransferBatch",
      "type": "event"
    },
    {
      "anonymous": false,
      "inputs": [
        {
          "indexed": true,
          "internalType": "address",
          "name": "operator",
          "type": "address"
        },
        {
          "indexed": true,
          "internalType": "address",
          "name": "from",
          "type": "address"
        },
        {
          "indexed": true,
          "internalType": "address",
          "name": "to",
          "type": "address"
        },
        {
          "indexed": false,
          "internalType": "uint256",
          "name": "id",
          "type": "uint256"
        },
        {
          "indexed": false,
          "internalType": "uint256",
          "name": "value",
          "type": "uint256"
        }
      ],
      "name": "TransferSingle",
      "type": "event"
    },
    {
      "anonymous": false,
      "inputs": [
        {
          "indexed": false,
          "internalType": "string",
          "name": "value",
          "type": "string"
        },
        {
          "indexed": true,
          "internalType": "uint256",
          "name": "id",
          "type": "uint256"
        }
      ],
      "name": "URI",
      "type": "event"
    },
    {
      "inputs": [],
      "name": "CommonEgg",
      "outputs": [
        {
          "internalType": "uint256",
          "name": "",
          "type": "uint256"
        }
      ],
      "stateMutability": "view",
      "type": "function",
      "constant": true
    },
    {
      "inputs": [],
      "name": "RareEgg",
      "outputs": [
        {
          "internalType": "uint256",
          "name": "",
          "type": "uint256"
        }
      ],
      "stateMutability": "view",
      "type": "function",
      "constant": true
    },
    {
      "inputs": [
        {
          "internalType": "uint8",
          "name": "_amount",
          "type": "uint8"
        }
      ],
      "name": "_cardInit",
      "outputs": [],
      "stateMutability": "nonpayable",
      "type": "function"
    },
    {
      "inputs": [
        {
          "internalType": "address",
          "name": "_userAddress",
          "type": "address"
        }
      ],
      "name": "_getAllCardOfUser",
      "outputs": [
        {
          "internalType": "uint256[]",
          "name": "",
          "type": "uint256[]"
        }
      ],
      "stateMutability": "view",
      "type": "function",
      "constant": true
    },
    {
      "inputs": [
        {
          "internalType": "address",
          "name": "account",
          "type": "address"
        },
        {
          "internalType": "uint256",
          "name": "id",
          "type": "uint256"
        }
      ],
      "name": "balanceOf",
      "outputs": [
        {
          "internalType": "uint256",
          "name": "",
          "type": "uint256"
        }
      ],
      "stateMutability": "view",
      "type": "function",
      "constant": true
    },
    {
      "inputs": [
        {
          "internalType": "address[]",
          "name": "accounts",
          "type": "address[]"
        },
        {
          "internalType": "uint256[]",
          "name": "ids",
          "type": "uint256[]"
        }
      ],
      "name": "balanceOfBatch",
      "outputs": [
        {
          "internalType": "uint256[]",
          "name": "",
          "type": "uint256[]"
        }
      ],
      "stateMutability": "view",
      "type": "function",
      "constant": true
    },
    {
      "inputs": [
        {
          "internalType": "uint256",
          "name": "",
          "type": "uint256"
        }
      ],
      "name": "cardBelongTo",
      "outputs": [
        {
          "internalType": "address",
          "name": "",
          "type": "address"
        }
      ],
      "stateMutability": "view",
      "type": "function",
      "constant": true
    },
    {
      "inputs": [
        {
          "internalType": "address",
          "name": "account",
          "type": "address"
        },
        {
          "internalType": "address",
          "name": "operator",
          "type": "address"
        }
      ],
      "name": "isApprovedForAll",
      "outputs": [
        {
          "internalType": "bool",
          "name": "",
          "type": "bool"
        }
      ],
      "stateMutability": "view",
      "type": "function",
      "constant": true
    },
    {
      "inputs": [
        {
          "internalType": "uint256",
          "name": "",
          "type": "uint256"
        }
      ],
      "name": "listCard",
      "outputs": [
        {
          "internalType": "uint256",
          "name": "dna",
          "type": "uint256"
        },
        {
          "internalType": "uint32",
          "name": "readyTime",
          "type": "uint32"
        }
      ],
      "stateMutability": "view",
      "type": "function",
      "constant": true
    },
    {
      "inputs": [],
      "name": "owner",
      "outputs": [
        {
          "internalType": "address",
          "name": "",
          "type": "address"
        }
      ],
      "stateMutability": "view",
      "type": "function",
      "constant": true
    },
    {
      "inputs": [],
      "name": "renounceOwnership",
      "outputs": [],
      "stateMutability": "nonpayable",
      "type": "function"
    },
    {
      "inputs": [
        {
          "internalType": "address",
          "name": "from",
          "type": "address"
        },
        {
          "internalType": "address",
          "name": "to",
          "type": "address"
        },
        {
          "internalType": "uint256[]",
          "name": "ids",
          "type": "uint256[]"
        },
        {
          "internalType": "uint256[]",
          "name": "amounts",
          "type": "uint256[]"
        },
        {
          "internalType": "bytes",
          "name": "data",
          "type": "bytes"
        }
      ],
      "name": "safeBatchTransferFrom",
      "outputs": [],
      "stateMutability": "nonpayable",
      "type": "function"
    },
    {
      "inputs": [
        {
          "internalType": "address",
          "name": "from",
          "type": "address"
        },
        {
          "internalType": "address",
          "name": "to",
          "type": "address"
        },
        {
          "internalType": "uint256",
          "name": "id",
          "type": "uint256"
        },
        {
          "internalType": "uint256",
          "name": "amount",
          "type": "uint256"
        },
        {
          "internalType": "bytes",
          "name": "data",
          "type": "bytes"
        }
      ],
      "name": "safeTransferFrom",
      "outputs": [],
      "stateMutability": "nonpayable",
      "type": "function"
    },
    {
      "inputs": [
        {
          "internalType": "address",
          "name": "operator",
          "type": "address"
        },
        {
          "internalType": "bool",
          "name": "approved",
          "type": "bool"
        }
      ],
      "name": "setApprovalForAll",
      "outputs": [],
      "stateMutability": "nonpayable",
      "type": "function"
    },
    {
      "inputs": [
        {
          "internalType": "bytes4",
          "name": "interfaceId",
          "type": "bytes4"
        }
      ],
      "name": "supportsInterface",
      "outputs": [
        {
          "internalType": "bool",
          "name": "",
          "type": "bool"
        }
      ],
      "stateMutability": "view",
      "type": "function",
      "constant": true
    },
    {
      "inputs": [
        {
          "internalType": "address",
          "name": "newOwner",
          "type": "address"
        }
      ],
      "name": "transferOwnership",
      "outputs": [],
      "stateMutability": "nonpayable",
      "type": "function"
    },
    {
      "inputs": [
        {
          "internalType": "uint256",
          "name": "",
          "type": "uint256"
        }
      ],
      "name": "uri",
      "outputs": [
        {
          "internalType": "string",
          "name": "",
          "type": "string"
        }
      ],
      "stateMutability": "view",
      "type": "function",
      "constant": true
    },
    {
      "inputs": [],
      "name": "_randomEnemy",
      "outputs": [
        {
          "components": [
            {
              "internalType": "uint256",
              "name": "dna",
              "type": "uint256"
            },
            {
              "internalType": "uint32",
              "name": "readyTime",
              "type": "uint32"
            }
          ],
          "internalType": "struct GameItems.Card",
          "name": "",
          "type": "tuple"
        }
      ],
      "stateMutability": "nonpayable",
      "type": "function"
    },
    {
      "inputs": [
        {
          "internalType": "uint256",
          "name": "_cardId",
          "type": "uint256"
        }
      ],
      "name": "_battle",
      "outputs": [
        {
          "internalType": "uint8",
          "name": "",
          "type": "uint8"
        }
      ],
      "stateMutability": "nonpayable",
      "type": "function"
    }
  ],
  "bytecode": "0x6080604052600c600555600554600a6200001a919062000324565b60065561012c60075560006008556032600b60006101000a81548160ff021916908360ff160217905550601e600b60016101000a81548160ff021916908360ff1602179055503480156200006d57600080fd5b50604051806020016040528060008152506200009e62000092620000b660201b60201c565b620000be60201b60201c565b620000af816200018260201b60201c565b50620006cc565b600033905090565b60008060009054906101000a900473ffffffffffffffffffffffffffffffffffffffff169050816000806101000a81548173ffffffffffffffffffffffffffffffffffffffff021916908373ffffffffffffffffffffffffffffffffffffffff1602179055508173ffffffffffffffffffffffffffffffffffffffff168173ffffffffffffffffffffffffffffffffffffffff167f8be0079c531659141344cd1fd0a4f28419497f9722a3daafe3b4186f6b6457e060405160405180910390a35050565b8060039081620001939190620005e5565b5050565b7f4e487b7100000000000000000000000000000000000000000000000000000000600052601160045260246000fd5b60008160011c9050919050565b6000808291508390505b60018511156200022557808604811115620001fd57620001fc62000197565b5b60018516156200020d5780820291505b80810290506200021d85620001c6565b9450620001dd565b94509492505050565b60008262000240576001905062000313565b8162000250576000905062000313565b81600181146200026957600281146200027457620002aa565b600191505062000313565b60ff84111562000289576200028862000197565b5b8360020a915084821115620002a357620002a262000197565b5b5062000313565b5060208310610133831016604e8410600b8410161715620002e45782820a905083811115620002de57620002dd62000197565b5b62000313565b620002f38484846001620001d3565b925090508184048111156200030d576200030c62000197565b5b81810290505b9392505050565b6000819050919050565b600062000331826200031a565b91506200033e836200031a565b92506200036d7fffffffffffffffffffffffffffffffffffffffffffffffffffffffffffffffff84846200022e565b905092915050565b600081519050919050565b7f4e487b7100000000000000000000000000000000000000000000000000000000600052604160045260246000fd5b7f4e487b7100000000000000000000000000000000000000000000000000000000600052602260045260246000fd5b60006002820490506001821680620003f757607f821691505b6020821081036200040d576200040c620003af565b5b50919050565b60008190508160005260206000209050919050565b60006020601f8301049050919050565b600082821b905092915050565b600060088302620004777fffffffffffffffffffffffffffffffffffffffffffffffffffffffffffffffff8262000438565b62000483868362000438565b95508019841693508086168417925050509392505050565b6000819050919050565b6000620004c6620004c0620004ba846200031a565b6200049b565b6200031a565b9050919050565b6000819050919050565b620004e283620004a5565b620004fa620004f182620004cd565b84845462000445565b825550505050565b600090565b6200051162000502565b6200051e818484620004d7565b505050565b5b8181101562000546576200053a60008262000507565b60018101905062000524565b5050565b601f82111562000595576200055f8162000413565b6200056a8462000428565b810160208510156200057a578190505b62000592620005898562000428565b83018262000523565b50505b505050565b600082821c905092915050565b6000620005ba600019846008026200059a565b1980831691505092915050565b6000620005d58383620005a7565b9150826002028217905092915050565b620005f08262000375565b67ffffffffffffffff8111156200060c576200060b62000380565b5b620006188254620003de565b620006258282856200054a565b600060209050601f8311600181146200065d576000841562000648578287015190505b620006548582620005c7565b865550620006c4565b601f1984166200066d8662000413565b60005b82811015620006975784890151825560018201915060208501945060208101905062000670565b86831015620006b75784890151620006b3601f891682620005a7565b8355505b6001600288020188555050505b505050505050565b61376e80620006dc6000396000f3fe608060405234801561001057600080fd5b50600436106101205760003560e01c8063715018a6116100ad578063aa8c9fff11610071578063aa8c9fff1461032e578063d998c8571461035e578063e985e9c51461037c578063f242432a146103ac578063f2fde38b146103c857610120565b8063715018a614610289578063811b09a214610293578063883ff062146102c45780638da5cb5b146102f4578063a22cb4651461031257610120565b80632583316c116100f45780632583316c146101e55780632eb2c2d6146102035780633b6791681461021f5780634e1273f41461023b5780635fc6b2411461026b57610120565b8062fdd58e1461012557806301ffc9a7146101555780630e89341c146101855780631b5886c1146101b5575b600080fd5b61013f600480360381019061013a9190612080565b6103e4565b60405161014c91906120cf565b60405180910390f35b61016f600480360381019061016a9190612142565b6104ad565b60405161017c919061218a565b60405180910390f35b61019f600480360381019061019a91906121a5565b61058f565b6040516101ac919061226b565b60405180910390f35b6101cf60048036038101906101ca919061228d565b610623565b6040516101dc9190612378565b60405180910390f35b6101ed610775565b6040516101fa91906120cf565b60405180910390f35b61021d60048036038101906102189190612597565b61077b565b005b6102396004803603810190610234919061269f565b61081c565b005b6102556004803603810190610250919061278f565b610854565b6040516102629190612378565b60405180910390f35b61027361096d565b60405161028091906120cf565b60405180910390f35b610291610973565b005b6102ad60048036038101906102a891906121a5565b610987565b6040516102bb929190612826565b60405180910390f35b6102de60048036038101906102d991906121a5565b6109cb565b6040516102eb919061285e565b60405180910390f35b6102fc6109fe565b604051610309919061285e565b60405180910390f35b61032c600480360381019061032791906128a5565b610a27565b005b610348600480360381019061034391906121a5565b610a3d565b60405161035591906128f4565b60405180910390f35b610366610be6565b604051610373919061294d565b60405180910390f35b61039660048036038101906103919190612968565b610c5d565b6040516103a3919061218a565b60405180910390f35b6103c660048036038101906103c191906129a8565b610cf1565b005b6103e260048036038101906103dd919061228d565b610d92565b005b60008073ffffffffffffffffffffffffffffffffffffffff168373ffffffffffffffffffffffffffffffffffffffff1603610454576040517f08c379a000000000000000000000000000000000000000000000000000000000815260040161044b90612ab1565b60405180910390fd5b6001600083815260200190815260200160002060008473ffffffffffffffffffffffffffffffffffffffff1673ffffffffffffffffffffffffffffffffffffffff16815260200190815260200160002054905092915050565b60007fd9b67a26000000000000000000000000000000000000000000000000000000007bffffffffffffffffffffffffffffffffffffffffffffffffffffffff1916827bffffffffffffffffffffffffffffffffffffffffffffffffffffffff1916148061057857507f0e89341c000000000000000000000000000000000000000000000000000000007bffffffffffffffffffffffffffffffffffffffffffffffffffffffff1916827bffffffffffffffffffffffffffffffffffffffffffffffffffffffff1916145b80610588575061058782610e15565b5b9050919050565b60606003805461059e90612b00565b80601f01602080910402602001604051908101604052809291908181526020018280546105ca90612b00565b80156106175780601f106105ec57610100808354040283529160200191610617565b820191906000526020600020905b8154815290600101906020018083116105fa57829003601f168201915b50505050509050919050565b60606000600a60008473ffffffffffffffffffffffffffffffffffffffff1673ffffffffffffffffffffffffffffffffffffffff1681526020019081526020016000205467ffffffffffffffff8111156106805761067f61239f565b5b6040519080825280602002602001820160405280156106ae5781602001602082028036833780820191505090505b5090506000805b60048054905081101561076a573373ffffffffffffffffffffffffffffffffffffffff166009600083815260200190815260200160002060009054906101000a900473ffffffffffffffffffffffffffffffffffffffff1673ffffffffffffffffffffffffffffffffffffffff1603610757578083838151811061073c5761073b612b31565b5b602002602001018181525050818061075390612b8f565b9250505b808061076290612b8f565b9150506106b5565b508192505050919050565b6103fe81565b610783610e7f565b73ffffffffffffffffffffffffffffffffffffffff168573ffffffffffffffffffffffffffffffffffffffff1614806107c957506107c8856107c3610e7f565b610c5d565b5b610808576040517f08c379a00000000000000000000000000000000000000000000000000000000081526004016107ff90612c49565b60405180910390fd5b6108158585858585610e87565b5050505050565b6108246111ab565b60005b8160ff168160ff1610156108505761083d611229565b808061084890612c69565b915050610827565b5050565b6060815183511461089a576040517f08c379a000000000000000000000000000000000000000000000000000000000815260040161089190612d04565b60405180910390fd5b6000835167ffffffffffffffff8111156108b7576108b661239f565b5b6040519080825280602002602001820160405280156108e55781602001602082028036833780820191505090505b50905060005b84518110156109625761093285828151811061090a57610909612b31565b5b602002602001015185838151811061092557610924612b31565b5b60200260200101516103e4565b82828151811061094557610944612b31565b5b6020026020010181815250508061095b90612b8f565b90506108eb565b508091505092915050565b6103fd81565b61097b6111ab565b61098560006113c8565b565b6004818154811061099757600080fd5b90600052602060002090600202016000915090508060000154908060010160009054906101000a900463ffffffff16905082565b60096020528060005260406000206000915054906101000a900473ffffffffffffffffffffffffffffffffffffffff1681565b60008060009054906101000a900473ffffffffffffffffffffffffffffffffffffffff16905090565b610a39610a32610e7f565b838361148c565b5050565b6000814260048281548110610a5557610a54612b31565b5b906000526020600020906002020160010160009054906101000a900463ffffffff1663ffffffff161115610abe576040517f08c379a0000000000000000000000000000000000000000000000000000000008152600401610ab590612d70565b60405180910390fd5b826009600082815260200190815260200160002060009054906101000a900473ffffffffffffffffffffffffffffffffffffffff1673ffffffffffffffffffffffffffffffffffffffff163373ffffffffffffffffffffffffffffffffffffffff1614610b60576040517f08c379a0000000000000000000000000000000000000000000000000000000008152600401610b5790612ddc565b60405180910390fd5b6000610b6c60646115f8565b90506000610b7a60646115f8565b9050600b60009054906101000a900460ff1660ff168260ff1610610bd157600b60019054906101000a900460ff1660ff168160ff1610610bc457610bbf6103fe611654565b610bd0565b610bcf6103fd611654565b5b5b610bda866116ba565b80945050505050919050565b610bee611fb8565b6004610bfe6004805490506115f8565b81548110610c0f57610c0e612b31565b5b9060005260206000209060020201604051806040016040529081600082015481526020016001820160009054906101000a900463ffffffff1663ffffffff1663ffffffff1681525050905090565b6000600260008473ffffffffffffffffffffffffffffffffffffffff1673ffffffffffffffffffffffffffffffffffffffff16815260200190815260200160002060008373ffffffffffffffffffffffffffffffffffffffff1673ffffffffffffffffffffffffffffffffffffffff16815260200190815260200160002060009054906101000a900460ff16905092915050565b610cf9610e7f565b73ffffffffffffffffffffffffffffffffffffffff168573ffffffffffffffffffffffffffffffffffffffff161480610d3f5750610d3e85610d39610e7f565b610c5d565b5b610d7e576040517f08c379a0000000000000000000000000000000000000000000000000000000008152600401610d7590612c49565b60405180910390fd5b610d8b858585858561170e565b5050505050565b610d9a6111ab565b600073ffffffffffffffffffffffffffffffffffffffff168173ffffffffffffffffffffffffffffffffffffffff1603610e09576040517f08c379a0000000000000000000000000000000000000000000000000000000008152600401610e0090612e6e565b60405180910390fd5b610e12816113c8565b50565b60007f01ffc9a7000000000000000000000000000000000000000000000000000000007bffffffffffffffffffffffffffffffffffffffffffffffffffffffff1916827bffffffffffffffffffffffffffffffffffffffffffffffffffffffff1916149050919050565b600033905090565b8151835114610ecb576040517f08c379a0000000000000000000000000000000000000000000000000000000008152600401610ec290612f00565b60405180910390fd5b600073ffffffffffffffffffffffffffffffffffffffff168473ffffffffffffffffffffffffffffffffffffffff1603610f3a576040517f08c379a0000000000000000000000000000000000000000000000000000000008152600401610f3190612f92565b60405180910390fd5b6000610f44610e7f565b9050610f548187878787876119ac565b60005b8451811015611108576000858281518110610f7557610f74612b31565b5b602002602001015190506000858381518110610f9457610f93612b31565b5b6020026020010151905060006001600084815260200190815260200160002060008b73ffffffffffffffffffffffffffffffffffffffff1673ffffffffffffffffffffffffffffffffffffffff16815260200190815260200160002054905081811015611036576040517f08c379a000000000000000000000000000000000000000000000000000000000815260040161102d90613024565b60405180910390fd5b8181036001600085815260200190815260200160002060008c73ffffffffffffffffffffffffffffffffffffffff1673ffffffffffffffffffffffffffffffffffffffff16815260200190815260200160002081905550816001600085815260200190815260200160002060008b73ffffffffffffffffffffffffffffffffffffffff1673ffffffffffffffffffffffffffffffffffffffff16815260200190815260200160002060008282546110ed9190613044565b925050819055505050508061110190612b8f565b9050610f57565b508473ffffffffffffffffffffffffffffffffffffffff168673ffffffffffffffffffffffffffffffffffffffff168273ffffffffffffffffffffffffffffffffffffffff167f4a39dc06d4c0dbc64b70af90fd698a233a518aa5d07e595d983b8c0526c8f7fb878760405161117f92919061309a565b60405180910390a46111958187878787876119b4565b6111a38187878787876119bc565b505050505050565b6111b3610e7f565b73ffffffffffffffffffffffffffffffffffffffff166111d16109fe565b73ffffffffffffffffffffffffffffffffffffffff1614611227576040517f08c379a000000000000000000000000000000000000000000000000000000000815260040161121e9061311d565b60405180910390fd5b565b60006112366006546115f8565b90506000600480549050905060046040518060400160405280848152602001600754426112639190613044565b63ffffffff1681525090806001815401808255809150506001900390600052602060002090600202016000909190919091506000820151816000015560208201518160010160006101000a81548163ffffffff021916908363ffffffff1602179055505050336009600083815260200190815260200160002060006101000a81548173ffffffffffffffffffffffffffffffffffffffff021916908373ffffffffffffffffffffffffffffffffffffffff160217905550600a60003373ffffffffffffffffffffffffffffffffffffffff1673ffffffffffffffffffffffffffffffffffffffff168152602001908152602001600020600081548092919061136a90612b8f565b919050555061138b3382600160405180602001604052806000815250611b93565b7fcf8e4e7c2fdf9e4b6dd5b064faecd0635e5c3c579db2d4addecaefa6eb59a7dd81836040516113bc92919061313d565b60405180910390a15050565b60008060009054906101000a900473ffffffffffffffffffffffffffffffffffffffff169050816000806101000a81548173ffffffffffffffffffffffffffffffffffffffff021916908373ffffffffffffffffffffffffffffffffffffffff1602179055508173ffffffffffffffffffffffffffffffffffffffff168173ffffffffffffffffffffffffffffffffffffffff167f8be0079c531659141344cd1fd0a4f28419497f9722a3daafe3b4186f6b6457e060405160405180910390a35050565b8173ffffffffffffffffffffffffffffffffffffffff168373ffffffffffffffffffffffffffffffffffffffff16036114fa576040517f08c379a00000000000000000000000000000000000000000000000000000000081526004016114f1906131d8565b60405180910390fd5b80600260008573ffffffffffffffffffffffffffffffffffffffff1673ffffffffffffffffffffffffffffffffffffffff16815260200190815260200160002060008473ffffffffffffffffffffffffffffffffffffffff1673ffffffffffffffffffffffffffffffffffffffff16815260200190815260200160002060006101000a81548160ff0219169083151502179055508173ffffffffffffffffffffffffffffffffffffffff168373ffffffffffffffffffffffffffffffffffffffff167f17307eab39ab6107e8899845ad3d59bd9653f200f220920489ca2b5937696c31836040516115eb919061218a565b60405180910390a3505050565b60006008600081548092919061160d90612b8f565b919050555081423360085460405160200161162a93929190613261565b6040516020818303038152906040528051906020012060001c61164d91906132cd565b9050919050565b806103fd81101561169a576040517f08c379a00000000000000000000000000000000000000000000000000000000081526004016116919061334a565b60405180910390fd5b6116b63383600160405180602001604052806000815250611b93565b5050565b600754426116c89190613044565b600482815481106116dc576116db612b31565b5b906000526020600020906002020160010160006101000a81548163ffffffff021916908363ffffffff16021790555050565b600073ffffffffffffffffffffffffffffffffffffffff168473ffffffffffffffffffffffffffffffffffffffff160361177d576040517f08c379a000000000000000000000000000000000000000000000000000000000815260040161177490612f92565b60405180910390fd5b6000611787610e7f565b9050600061179485611d44565b905060006117a185611d44565b90506117b18389898585896119ac565b60006001600088815260200190815260200160002060008a73ffffffffffffffffffffffffffffffffffffffff1673ffffffffffffffffffffffffffffffffffffffff16815260200190815260200160002054905085811015611849576040517f08c379a000000000000000000000000000000000000000000000000000000000815260040161184090613024565b60405180910390fd5b8581036001600089815260200190815260200160002060008b73ffffffffffffffffffffffffffffffffffffffff1673ffffffffffffffffffffffffffffffffffffffff16815260200190815260200160002081905550856001600089815260200190815260200160002060008a73ffffffffffffffffffffffffffffffffffffffff1673ffffffffffffffffffffffffffffffffffffffff16815260200190815260200160002060008282546119009190613044565b925050819055508773ffffffffffffffffffffffffffffffffffffffff168973ffffffffffffffffffffffffffffffffffffffff168573ffffffffffffffffffffffffffffffffffffffff167fc3d58168c5ae7397731d063d5bbf3d657854427343f4c083240f7aacaa2d0f628a8a60405161197d92919061313d565b60405180910390a4611993848a8a86868a6119b4565b6119a1848a8a8a8a8a611dbe565b505050505050505050565b505050505050565b505050505050565b6119db8473ffffffffffffffffffffffffffffffffffffffff16611f95565b15611b8b578373ffffffffffffffffffffffffffffffffffffffff1663bc197c8187878686866040518663ffffffff1660e01b8152600401611a219594939291906133bf565b6020604051808303816000875af1925050508015611a5d57506040513d601f19601f82011682018060405250810190611a5a919061343c565b60015b611b0257611a69613476565b806308c379a003611ac55750611a7d613498565b80611a885750611ac7565b806040517f08c379a0000000000000000000000000000000000000000000000000000000008152600401611abc919061226b565b60405180910390fd5b505b6040517f08c379a0000000000000000000000000000000000000000000000000000000008152600401611af99061359a565b60405180910390fd5b63bc197c8160e01b7bffffffffffffffffffffffffffffffffffffffffffffffffffffffff1916817bffffffffffffffffffffffffffffffffffffffffffffffffffffffff191614611b89576040517f08c379a0000000000000000000000000000000000000000000000000000000008152600401611b809061362c565b60405180910390fd5b505b505050505050565b600073ffffffffffffffffffffffffffffffffffffffff168473ffffffffffffffffffffffffffffffffffffffff1603611c02576040517f08c379a0000000000000000000000000000000000000000000000000000000008152600401611bf9906136be565b60405180910390fd5b6000611c0c610e7f565b90506000611c1985611d44565b90506000611c2685611d44565b9050611c37836000898585896119ac565b846001600088815260200190815260200160002060008973ffffffffffffffffffffffffffffffffffffffff1673ffffffffffffffffffffffffffffffffffffffff1681526020019081526020016000206000828254611c979190613044565b925050819055508673ffffffffffffffffffffffffffffffffffffffff16600073ffffffffffffffffffffffffffffffffffffffff168473ffffffffffffffffffffffffffffffffffffffff167fc3d58168c5ae7397731d063d5bbf3d657854427343f4c083240f7aacaa2d0f628989604051611d1592919061313d565b60405180910390a4611d2c836000898585896119b4565b611d3b83600089898989611dbe565b50505050505050565b60606000600167ffffffffffffffff811115611d6357611d6261239f565b5b604051908082528060200260200182016040528015611d915781602001602082028036833780820191505090505b5090508281600081518110611da957611da8612b31565b5b60200260200101818152505080915050919050565b611ddd8473ffffffffffffffffffffffffffffffffffffffff16611f95565b15611f8d578373ffffffffffffffffffffffffffffffffffffffff1663f23a6e6187878686866040518663ffffffff1660e01b8152600401611e239594939291906136de565b6020604051808303816000875af1925050508015611e5f57506040513d601f19601f82011682018060405250810190611e5c919061343c565b60015b611f0457611e6b613476565b806308c379a003611ec75750611e7f613498565b80611e8a5750611ec9565b806040517f08c379a0000000000000000000000000000000000000000000000000000000008152600401611ebe919061226b565b60405180910390fd5b505b6040517f08c379a0000000000000000000000000000000000000000000000000000000008152600401611efb9061359a565b60405180910390fd5b63f23a6e6160e01b7bffffffffffffffffffffffffffffffffffffffffffffffffffffffff1916817bffffffffffffffffffffffffffffffffffffffffffffffffffffffff191614611f8b576040517f08c379a0000000000000000000000000000000000000000000000000000000008152600401611f829061362c565b60405180910390fd5b505b505050505050565b6000808273ffffffffffffffffffffffffffffffffffffffff163b119050919050565b604051806040016040528060008152602001600063ffffffff1681525090565b6000604051905090565b600080fd5b600080fd5b600073ffffffffffffffffffffffffffffffffffffffff82169050919050565b600061201782611fec565b9050919050565b6120278161200c565b811461203257600080fd5b50565b6000813590506120448161201e565b92915050565b6000819050919050565b61205d8161204a565b811461206857600080fd5b50565b60008135905061207a81612054565b92915050565b6000806040838503121561209757612096611fe2565b5b60006120a585828601612035565b92505060206120b68582860161206b565b9150509250929050565b6120c98161204a565b82525050565b60006020820190506120e460008301846120c0565b92915050565b60007fffffffff0000000000000000000000000000000000000000000000000000000082169050919050565b61211f816120ea565b811461212a57600080fd5b50565b60008135905061213c81612116565b92915050565b60006020828403121561215857612157611fe2565b5b60006121668482850161212d565b91505092915050565b60008115159050919050565b6121848161216f565b82525050565b600060208201905061219f600083018461217b565b92915050565b6000602082840312156121bb576121ba611fe2565b5b60006121c98482850161206b565b91505092915050565b600081519050919050565b600082825260208201905092915050565b60005b8381101561220c5780820151818401526020810190506121f1565b8381111561221b576000848401525b50505050565b6000601f19601f8301169050919050565b600061223d826121d2565b61224781856121dd565b93506122578185602086016121ee565b61226081612221565b840191505092915050565b600060208201905081810360008301526122858184612232565b905092915050565b6000602082840312156122a3576122a2611fe2565b5b60006122b184828501612035565b91505092915050565b600081519050919050565b600082825260208201905092915050565b6000819050602082019050919050565b6122ef8161204a565b82525050565b600061230183836122e6565b60208301905092915050565b6000602082019050919050565b6000612325826122ba565b61232f81856122c5565b935061233a836122d6565b8060005b8381101561236b57815161235288826122f5565b975061235d8361230d565b92505060018101905061233e565b5085935050505092915050565b60006020820190508181036000830152612392818461231a565b905092915050565b600080fd5b7f4e487b7100000000000000000000000000000000000000000000000000000000600052604160045260246000fd5b6123d782612221565b810181811067ffffffffffffffff821117156123f6576123f561239f565b5b80604052505050565b6000612409611fd8565b905061241582826123ce565b919050565b600067ffffffffffffffff8211156124355761243461239f565b5b602082029050602081019050919050565b600080fd5b600061245e6124598461241a565b6123ff565b9050808382526020820190506020840283018581111561248157612480612446565b5b835b818110156124aa5780612496888261206b565b845260208401935050602081019050612483565b5050509392505050565b600082601f8301126124c9576124c861239a565b5b81356124d984826020860161244b565b91505092915050565b600080fd5b600067ffffffffffffffff8211156125025761250161239f565b5b61250b82612221565b9050602081019050919050565b82818337600083830152505050565b600061253a612535846124e7565b6123ff565b905082815260208101848484011115612556576125556124e2565b5b612561848285612518565b509392505050565b600082601f83011261257e5761257d61239a565b5b813561258e848260208601612527565b91505092915050565b600080600080600060a086880312156125b3576125b2611fe2565b5b60006125c188828901612035565b95505060206125d288828901612035565b945050604086013567ffffffffffffffff8111156125f3576125f2611fe7565b5b6125ff888289016124b4565b935050606086013567ffffffffffffffff8111156126205761261f611fe7565b5b61262c888289016124b4565b925050608086013567ffffffffffffffff81111561264d5761264c611fe7565b5b61265988828901612569565b9150509295509295909350565b600060ff82169050919050565b61267c81612666565b811461268757600080fd5b50565b60008135905061269981612673565b92915050565b6000602082840312156126b5576126b4611fe2565b5b60006126c38482850161268a565b91505092915050565b600067ffffffffffffffff8211156126e7576126e661239f565b5b602082029050602081019050919050565b600061270b612706846126cc565b6123ff565b9050808382526020820190506020840283018581111561272e5761272d612446565b5b835b8181101561275757806127438882612035565b845260208401935050602081019050612730565b5050509392505050565b600082601f8301126127765761277561239a565b5b81356127868482602086016126f8565b91505092915050565b600080604083850312156127a6576127a5611fe2565b5b600083013567ffffffffffffffff8111156127c4576127c3611fe7565b5b6127d085828601612761565b925050602083013567ffffffffffffffff8111156127f1576127f0611fe7565b5b6127fd858286016124b4565b9150509250929050565b600063ffffffff82169050919050565b61282081612807565b82525050565b600060408201905061283b60008301856120c0565b6128486020830184612817565b9392505050565b6128588161200c565b82525050565b6000602082019050612873600083018461284f565b92915050565b6128828161216f565b811461288d57600080fd5b50565b60008135905061289f81612879565b92915050565b600080604083850312156128bc576128bb611fe2565b5b60006128ca85828601612035565b92505060206128db85828601612890565b9150509250929050565b6128ee81612666565b82525050565b600060208201905061290960008301846128e5565b92915050565b61291881612807565b82525050565b60408201600082015161293460008501826122e6565b506020820151612947602085018261290f565b50505050565b6000604082019050612962600083018461291e565b92915050565b6000806040838503121561297f5761297e611fe2565b5b600061298d85828601612035565b925050602061299e85828601612035565b9150509250929050565b600080600080600060a086880312156129c4576129c3611fe2565b5b60006129d288828901612035565b95505060206129e388828901612035565b94505060406129f48882890161206b565b9350506060612a058882890161206b565b925050608086013567ffffffffffffffff811115612a2657612a25611fe7565b5b612a3288828901612569565b9150509295509295909350565b7f455243313135353a2061646472657373207a65726f206973206e6f742061207660008201527f616c6964206f776e657200000000000000000000000000000000000000000000602082015250565b6000612a9b602a836121dd565b9150612aa682612a3f565b604082019050919050565b60006020820190508181036000830152612aca81612a8e565b9050919050565b7f4e487b7100000000000000000000000000000000000000000000000000000000600052602260045260246000fd5b60006002820490506001821680612b1857607f821691505b602082108103612b2b57612b2a612ad1565b5b50919050565b7f4e487b7100000000000000000000000000000000000000000000000000000000600052603260045260246000fd5b7f4e487b7100000000000000000000000000000000000000000000000000000000600052601160045260246000fd5b6000612b9a8261204a565b91507fffffffffffffffffffffffffffffffffffffffffffffffffffffffffffffffff8203612bcc57612bcb612b60565b5b600182019050919050565b7f455243313135353a2063616c6c6572206973206e6f7420746f6b656e206f776e60008201527f6572206e6f7220617070726f7665640000000000000000000000000000000000602082015250565b6000612c33602f836121dd565b9150612c3e82612bd7565b604082019050919050565b60006020820190508181036000830152612c6281612c26565b9050919050565b6000612c7482612666565b915060ff8203612c8757612c86612b60565b5b600182019050919050565b7f455243313135353a206163636f756e747320616e6420696473206c656e67746860008201527f206d69736d617463680000000000000000000000000000000000000000000000602082015250565b6000612cee6029836121dd565b9150612cf982612c92565b604082019050919050565b60006020820190508181036000830152612d1d81612ce1565b9050919050565b7f697320636f6f6c646f776e000000000000000000000000000000000000000000600082015250565b6000612d5a600b836121dd565b9150612d6582612d24565b602082019050919050565b60006020820190508181036000830152612d8981612d4d565b9050919050565b7f796f7520617265206e6f7420746865206f776e65720000000000000000000000600082015250565b6000612dc66015836121dd565b9150612dd182612d90565b602082019050919050565b60006020820190508181036000830152612df581612db9565b9050919050565b7f4f776e61626c653a206e6577206f776e657220697320746865207a65726f206160008201527f6464726573730000000000000000000000000000000000000000000000000000602082015250565b6000612e586026836121dd565b9150612e6382612dfc565b604082019050919050565b60006020820190508181036000830152612e8781612e4b565b9050919050565b7f455243313135353a2069647320616e6420616d6f756e7473206c656e6774682060008201527f6d69736d61746368000000000000000000000000000000000000000000000000602082015250565b6000612eea6028836121dd565b9150612ef582612e8e565b604082019050919050565b60006020820190508181036000830152612f1981612edd565b9050919050565b7f455243313135353a207472616e7366657220746f20746865207a65726f20616460008201527f6472657373000000000000000000000000000000000000000000000000000000602082015250565b6000612f7c6025836121dd565b9150612f8782612f20565b604082019050919050565b60006020820190508181036000830152612fab81612f6f565b9050919050565b7f455243313135353a20696e73756666696369656e742062616c616e636520666f60008201527f72207472616e7366657200000000000000000000000000000000000000000000602082015250565b600061300e602a836121dd565b915061301982612fb2565b604082019050919050565b6000602082019050818103600083015261303d81613001565b9050919050565b600061304f8261204a565b915061305a8361204a565b9250827fffffffffffffffffffffffffffffffffffffffffffffffffffffffffffffffff0382111561308f5761308e612b60565b5b828201905092915050565b600060408201905081810360008301526130b4818561231a565b905081810360208301526130c8818461231a565b90509392505050565b7f4f776e61626c653a2063616c6c6572206973206e6f7420746865206f776e6572600082015250565b60006131076020836121dd565b9150613112826130d1565b602082019050919050565b60006020820190508181036000830152613136816130fa565b9050919050565b600060408201905061315260008301856120c0565b61315f60208301846120c0565b9392505050565b7f455243313135353a2073657474696e6720617070726f76616c2073746174757360008201527f20666f722073656c660000000000000000000000000000000000000000000000602082015250565b60006131c26029836121dd565b91506131cd82613166565b604082019050919050565b600060208201905081810360008301526131f1816131b5565b9050919050565b6000819050919050565b61321361320e8261204a565b6131f8565b82525050565b60008160601b9050919050565b600061323182613219565b9050919050565b600061324382613226565b9050919050565b61325b6132568261200c565b613238565b82525050565b600061326d8286613202565b60208201915061327d828561324a565b60148201915061328d8284613202565b602082019150819050949350505050565b7f4e487b7100000000000000000000000000000000000000000000000000000000600052601260045260246000fd5b60006132d88261204a565b91506132e38361204a565b9250826132f3576132f261329e565b5b828206905092915050565b7f757365722063616e6e6f74206d696e742074686973206e667400000000000000600082015250565b60006133346019836121dd565b915061333f826132fe565b602082019050919050565b6000602082019050818103600083015261336381613327565b9050919050565b600081519050919050565b600082825260208201905092915050565b60006133918261336a565b61339b8185613375565b93506133ab8185602086016121ee565b6133b481612221565b840191505092915050565b600060a0820190506133d4600083018861284f565b6133e1602083018761284f565b81810360408301526133f3818661231a565b90508181036060830152613407818561231a565b9050818103608083015261341b8184613386565b90509695505050505050565b60008151905061343681612116565b92915050565b60006020828403121561345257613451611fe2565b5b600061346084828501613427565b91505092915050565b60008160e01c9050919050565b600060033d11156134955760046000803e613492600051613469565b90505b90565b600060443d10613525576134aa611fd8565b60043d036004823e80513d602482011167ffffffffffffffff821117156134d2575050613525565b808201805167ffffffffffffffff8111156134f05750505050613525565b80602083010160043d03850181111561350d575050505050613525565b61351c826020018501866123ce565b82955050505050505b90565b7f455243313135353a207472616e7366657220746f206e6f6e204552433131353560008201527f526563656976657220696d706c656d656e746572000000000000000000000000602082015250565b60006135846034836121dd565b915061358f82613528565b604082019050919050565b600060208201905081810360008301526135b381613577565b9050919050565b7f455243313135353a204552433131353552656365697665722072656a6563746560008201527f6420746f6b656e73000000000000000000000000000000000000000000000000602082015250565b60006136166028836121dd565b9150613621826135ba565b604082019050919050565b6000602082019050818103600083015261364581613609565b9050919050565b7f455243313135353a206d696e7420746f20746865207a65726f2061646472657360008201527f7300000000000000000000000000000000000000000000000000000000000000602082015250565b60006136a86021836121dd565b91506136b38261364c565b604082019050919050565b600060208201905081810360008301526136d78161369b565b9050919050565b600060a0820190506136f3600083018861284f565b613700602083018761284f565b61370d60408301866120c0565b61371a60608301856120c0565b818103608083015261372c8184613386565b9050969550505050505056fea2646970667358221220f98f133c0ef092c1d993d10cba55c6ca7249ccfbd1f3e496920d3d39322e6abd64736f6c634300080f0033",
  "immutableReferences": {},
  "source": "// SPDX-License-Identifier: MIT\npragma solidity >=0.8.7;\n\nimport \"./CardEntity.sol\";\n\ncontract CardBattle is CardEntity {\n    uint8 winRate = 50;\n    uint8 rareEggRate = 30;\n\n    modifier checkCooldown(uint _cardId) {\n        require(listCard[_cardId].readyTime <= block.timestamp, \"is cooldown\");\n        _;\n    }\n\n    function _triggerCooldown(uint _cardId) internal {\n        listCard[_cardId].readyTime = uint32(block.timestamp + cooldownTime);\n    }\n\n    function _randomEnemy() external returns (Card memory) {\n        return (listCard[_random(listCard.length)]);\n    }\n\n    function _battle(uint _cardId) external checkCooldown(_cardId) onlyOwnerOfCard(_cardId) returns (uint8) {\n        uint8 checkWin = uint8(_random(100));\n        uint8 checkEgg = uint8(_random(100));\n        if (checkWin >= winRate) {\n            if (checkEgg >= rareEggRate) _userMint(CommonEgg);\n            else _userMint(RareEgg);\n        }\n        _triggerCooldown(_cardId);\n        return checkEgg;\n    }\n}",
  "sourcePath": "/home/ca00691/Desktop/basic-game-card/contracts/CardBattle.sol",
  "compiler": {
    "name": "solc",
    "version": "0.8.15+commit.e14f2714.Emscripten.clang"
  },
  "schemaVersion": "3.4.8",
  "updatedAt": "2022-07-19T09:01:02.496Z",
  "networkType": "ethereum",
  "devdoc": {
    "kind": "dev",
    "methods": {
      "balanceOf(address,uint256)": {
        "details": "See {IERC1155-balanceOf}. Requirements: - `account` cannot be the zero address."
      },
      "balanceOfBatch(address[],uint256[])": {
        "details": "See {IERC1155-balanceOfBatch}. Requirements: - `accounts` and `ids` must have the same length."
      },
      "isApprovedForAll(address,address)": {
        "details": "See {IERC1155-isApprovedForAll}."
      },
      "owner()": {
        "details": "Returns the address of the current owner."
      },
      "renounceOwnership()": {
        "details": "Leaves the contract without owner. It will not be possible to call `onlyOwner` functions anymore. Can only be called by the current owner. NOTE: Renouncing ownership will leave the contract without an owner, thereby removing any functionality that is only available to the owner."
      },
      "safeBatchTransferFrom(address,address,uint256[],uint256[],bytes)": {
        "details": "See {IERC1155-safeBatchTransferFrom}."
      },
      "safeTransferFrom(address,address,uint256,uint256,bytes)": {
        "details": "See {IERC1155-safeTransferFrom}."
      },
      "setApprovalForAll(address,bool)": {
        "details": "See {IERC1155-setApprovalForAll}."
      },
      "supportsInterface(bytes4)": {
        "details": "See {IERC165-supportsInterface}."
      },
      "transferOwnership(address)": {
        "details": "Transfers ownership of the contract to a new account (`newOwner`). Can only be called by the current owner."
      },
      "uri(uint256)": {
        "details": "See {IERC1155MetadataURI-uri}. This implementation returns the same URI for *all* token types. It relies on the token type ID substitution mechanism https://eips.ethereum.org/EIPS/eip-1155#metadata[defined in the EIP]. Clients calling this function must replace the `\\{id\\}` substring with the actual token type ID."
      }
    },
    "version": 1
  },
  "userdoc": {
    "kind": "user",
    "methods": {},
    "version": 1
  }
}