{
  "contractName": "GameItems",
  "abi": [
    {
      "inputs": [],
      "stateMutability": "nonpayable",
      "type": "constructor"
    },
    {
      "anonymous": false,
      "inputs": [
        {
          "indexed": true,
          "internalType": "address",
          "name": "account",
          "type": "address"
        },
        {
          "indexed": true,
          "internalType": "address",
          "name": "operator",
          "type": "address"
        },
        {
          "indexed": false,
          "internalType": "bool",
          "name": "approved",
          "type": "bool"
        }
      ],
      "name": "ApprovalForAll",
      "type": "event"
    },
    {
      "anonymous": false,
      "inputs": [
        {
          "indexed": true,
          "internalType": "address",
          "name": "operator",
          "type": "address"
        },
        {
          "indexed": true,
          "internalType": "address",
          "name": "from",
          "type": "address"
        },
        {
          "indexed": true,
          "internalType": "address",
          "name": "to",
          "type": "address"
        },
        {
          "indexed": false,
          "internalType": "uint256[]",
          "name": "ids",
          "type": "uint256[]"
        },
        {
          "indexed": false,
          "internalType": "uint256[]",
          "name": "values",
          "type": "uint256[]"
        }
      ],
      "name": "TransferBatch",
      "type": "event"
    },
    {
      "anonymous": false,
      "inputs": [
        {
          "indexed": true,
          "internalType": "address",
          "name": "operator",
          "type": "address"
        },
        {
          "indexed": true,
          "internalType": "address",
          "name": "from",
          "type": "address"
        },
        {
          "indexed": true,
          "internalType": "address",
          "name": "to",
          "type": "address"
        },
        {
          "indexed": false,
          "internalType": "uint256",
          "name": "id",
          "type": "uint256"
        },
        {
          "indexed": false,
          "internalType": "uint256",
          "name": "value",
          "type": "uint256"
        }
      ],
      "name": "TransferSingle",
      "type": "event"
    },
    {
      "anonymous": false,
      "inputs": [
        {
          "indexed": false,
          "internalType": "string",
          "name": "value",
          "type": "string"
        },
        {
          "indexed": true,
          "internalType": "uint256",
          "name": "id",
          "type": "uint256"
        }
      ],
      "name": "URI",
      "type": "event"
    },
    {
      "inputs": [],
      "name": "CommonEgg",
      "outputs": [
        {
          "internalType": "uint256",
          "name": "",
          "type": "uint256"
        }
      ],
      "stateMutability": "view",
      "type": "function"
    },
    {
      "inputs": [],
      "name": "RareEgg",
      "outputs": [
        {
          "internalType": "uint256",
          "name": "",
          "type": "uint256"
        }
      ],
      "stateMutability": "view",
      "type": "function"
    },
    {
      "inputs": [
        {
          "internalType": "address",
          "name": "account",
          "type": "address"
        },
        {
          "internalType": "uint256",
          "name": "id",
          "type": "uint256"
        }
      ],
      "name": "balanceOf",
      "outputs": [
        {
          "internalType": "uint256",
          "name": "",
          "type": "uint256"
        }
      ],
      "stateMutability": "view",
      "type": "function"
    },
    {
      "inputs": [
        {
          "internalType": "address[]",
          "name": "accounts",
          "type": "address[]"
        },
        {
          "internalType": "uint256[]",
          "name": "ids",
          "type": "uint256[]"
        }
      ],
      "name": "balanceOfBatch",
      "outputs": [
        {
          "internalType": "uint256[]",
          "name": "",
          "type": "uint256[]"
        }
      ],
      "stateMutability": "view",
      "type": "function"
    },
    {
      "inputs": [
        {
          "internalType": "address",
          "name": "account",
          "type": "address"
        },
        {
          "internalType": "address",
          "name": "operator",
          "type": "address"
        }
      ],
      "name": "isApprovedForAll",
      "outputs": [
        {
          "internalType": "bool",
          "name": "",
          "type": "bool"
        }
      ],
      "stateMutability": "view",
      "type": "function"
    },
    {
      "inputs": [
        {
          "internalType": "uint256",
          "name": "",
          "type": "uint256"
        }
      ],
      "name": "listCard",
      "outputs": [
        {
          "internalType": "uint256",
          "name": "dna",
          "type": "uint256"
        },
        {
          "internalType": "uint32",
          "name": "readyTime",
          "type": "uint32"
        }
      ],
      "stateMutability": "view",
      "type": "function"
    },
    {
      "inputs": [
        {
          "internalType": "address",
          "name": "from",
          "type": "address"
        },
        {
          "internalType": "address",
          "name": "to",
          "type": "address"
        },
        {
          "internalType": "uint256[]",
          "name": "ids",
          "type": "uint256[]"
        },
        {
          "internalType": "uint256[]",
          "name": "amounts",
          "type": "uint256[]"
        },
        {
          "internalType": "bytes",
          "name": "data",
          "type": "bytes"
        }
      ],
      "name": "safeBatchTransferFrom",
      "outputs": [],
      "stateMutability": "nonpayable",
      "type": "function"
    },
    {
      "inputs": [
        {
          "internalType": "address",
          "name": "from",
          "type": "address"
        },
        {
          "internalType": "address",
          "name": "to",
          "type": "address"
        },
        {
          "internalType": "uint256",
          "name": "id",
          "type": "uint256"
        },
        {
          "internalType": "uint256",
          "name": "amount",
          "type": "uint256"
        },
        {
          "internalType": "bytes",
          "name": "data",
          "type": "bytes"
        }
      ],
      "name": "safeTransferFrom",
      "outputs": [],
      "stateMutability": "nonpayable",
      "type": "function"
    },
    {
      "inputs": [
        {
          "internalType": "address",
          "name": "operator",
          "type": "address"
        },
        {
          "internalType": "bool",
          "name": "approved",
          "type": "bool"
        }
      ],
      "name": "setApprovalForAll",
      "outputs": [],
      "stateMutability": "nonpayable",
      "type": "function"
    },
    {
      "inputs": [
        {
          "internalType": "bytes4",
          "name": "interfaceId",
          "type": "bytes4"
        }
      ],
      "name": "supportsInterface",
      "outputs": [
        {
          "internalType": "bool",
          "name": "",
          "type": "bool"
        }
      ],
      "stateMutability": "view",
      "type": "function"
    },
    {
      "inputs": [
        {
          "internalType": "uint256",
          "name": "",
          "type": "uint256"
        }
      ],
      "name": "uri",
      "outputs": [
        {
          "internalType": "string",
          "name": "",
          "type": "string"
        }
      ],
      "stateMutability": "view",
      "type": "function"
    }
  ],
  "bytecode": "0x60806040523480156200001157600080fd5b506040518060200160405280600081525062000033816200003a60201b60201c565b50620003b0565b80600290816200004b9190620002c9565b5050565b600081519050919050565b7f4e487b7100000000000000000000000000000000000000000000000000000000600052604160045260246000fd5b7f4e487b7100000000000000000000000000000000000000000000000000000000600052602260045260246000fd5b60006002820490506001821680620000d157607f821691505b602082108103620000e757620000e662000089565b5b50919050565b60008190508160005260206000209050919050565b60006020601f8301049050919050565b600082821b905092915050565b600060088302620001517fffffffffffffffffffffffffffffffffffffffffffffffffffffffffffffffff8262000112565b6200015d868362000112565b95508019841693508086168417925050509392505050565b6000819050919050565b6000819050919050565b6000620001aa620001a46200019e8462000175565b6200017f565b62000175565b9050919050565b6000819050919050565b620001c68362000189565b620001de620001d582620001b1565b8484546200011f565b825550505050565b600090565b620001f5620001e6565b62000202818484620001bb565b505050565b5b818110156200022a576200021e600082620001eb565b60018101905062000208565b5050565b601f82111562000279576200024381620000ed565b6200024e8462000102565b810160208510156200025e578190505b620002766200026d8562000102565b83018262000207565b50505b505050565b600082821c905092915050565b60006200029e600019846008026200027e565b1980831691505092915050565b6000620002b983836200028b565b9150826002028217905092915050565b620002d4826200004f565b67ffffffffffffffff811115620002f057620002ef6200005a565b5b620002fc8254620000b8565b620003098282856200022e565b600060209050601f8311600181146200034157600084156200032c578287015190505b620003388582620002ab565b865550620003a8565b601f1984166200035186620000ed565b60005b828110156200037b5784890151825560018201915060208501945060208101905062000354565b868310156200039b578489015162000397601f8916826200028b565b8355505b6001600288020188555050505b505050505050565b61264880620003c06000396000f3fe608060405234801561001057600080fd5b50600436106100a85760003560e01c80634e1273f4116100715780634e1273f4146101775780635fc6b241146101a7578063811b09a2146101c5578063a22cb465146101f6578063e985e9c514610212578063f242432a14610242576100a8565b8062fdd58e146100ad57806301ffc9a7146100dd5780630e89341c1461010d5780632583316c1461013d5780632eb2c2d61461015b575b600080fd5b6100c760048036038101906100c2919061148e565b61025e565b6040516100d491906114dd565b60405180910390f35b6100f760048036038101906100f29190611550565b610326565b6040516101049190611598565b60405180910390f35b610127600480360381019061012291906115b3565b610408565b6040516101349190611679565b60405180910390f35b61014561049c565b60405161015291906114dd565b60405180910390f35b61017560048036038101906101709190611898565b6104a2565b005b610191600480360381019061018c9190611a2a565b610543565b60405161019e9190611b60565b60405180910390f35b6101af61065c565b6040516101bc91906114dd565b60405180910390f35b6101df60048036038101906101da91906115b3565b610662565b6040516101ed929190611ba1565b60405180910390f35b610210600480360381019061020b9190611bf6565b6106a6565b005b61022c60048036038101906102279190611c36565b6106bc565b6040516102399190611598565b60405180910390f35b61025c60048036038101906102579190611c76565b610750565b005b60008073ffffffffffffffffffffffffffffffffffffffff168373ffffffffffffffffffffffffffffffffffffffff16036102ce576040517f08c379a00000000000000000000000000000000000000000000000000000000081526004016102c590611d7f565b60405180910390fd5b60008083815260200190815260200160002060008473ffffffffffffffffffffffffffffffffffffffff1673ffffffffffffffffffffffffffffffffffffffff16815260200190815260200160002054905092915050565b60007fd9b67a26000000000000000000000000000000000000000000000000000000007bffffffffffffffffffffffffffffffffffffffffffffffffffffffff1916827bffffffffffffffffffffffffffffffffffffffffffffffffffffffff191614806103f157507f0e89341c000000000000000000000000000000000000000000000000000000007bffffffffffffffffffffffffffffffffffffffffffffffffffffffff1916827bffffffffffffffffffffffffffffffffffffffffffffffffffffffff1916145b806104015750610400826107f1565b5b9050919050565b60606002805461041790611dce565b80601f016020809104026020016040519081016040528092919081815260200182805461044390611dce565b80156104905780601f1061046557610100808354040283529160200191610490565b820191906000526020600020905b81548152906001019060200180831161047357829003601f168201915b50505050509050919050565b6103fe81565b6104aa61085b565b73ffffffffffffffffffffffffffffffffffffffff168573ffffffffffffffffffffffffffffffffffffffff1614806104f057506104ef856104ea61085b565b6106bc565b5b61052f576040517f08c379a000000000000000000000000000000000000000000000000000000000815260040161052690611e71565b60405180910390fd5b61053c8585858585610863565b5050505050565b60608151835114610589576040517f08c379a000000000000000000000000000000000000000000000000000000000815260040161058090611f03565b60405180910390fd5b6000835167ffffffffffffffff8111156105a6576105a56116a0565b5b6040519080825280602002602001820160405280156105d45781602001602082028036833780820191505090505b50905060005b8451811015610651576106218582815181106105f9576105f8611f23565b5b602002602001015185838151811061061457610613611f23565b5b602002602001015161025e565b82828151811061063457610633611f23565b5b6020026020010181815250508061064a90611f81565b90506105da565b508091505092915050565b6103fd81565b6003818154811061067257600080fd5b90600052602060002090600202016000915090508060000154908060010160009054906101000a900463ffffffff16905082565b6106b86106b161085b565b8383610b84565b5050565b6000600160008473ffffffffffffffffffffffffffffffffffffffff1673ffffffffffffffffffffffffffffffffffffffff16815260200190815260200160002060008373ffffffffffffffffffffffffffffffffffffffff1673ffffffffffffffffffffffffffffffffffffffff16815260200190815260200160002060009054906101000a900460ff16905092915050565b61075861085b565b73ffffffffffffffffffffffffffffffffffffffff168573ffffffffffffffffffffffffffffffffffffffff16148061079e575061079d8561079861085b565b6106bc565b5b6107dd576040517f08c379a00000000000000000000000000000000000000000000000000000000081526004016107d490611e71565b60405180910390fd5b6107ea8585858585610cf0565b5050505050565b60007f01ffc9a7000000000000000000000000000000000000000000000000000000007bffffffffffffffffffffffffffffffffffffffffffffffffffffffff1916827bffffffffffffffffffffffffffffffffffffffffffffffffffffffff1916149050919050565b600033905090565b81518351146108a7576040517f08c379a000000000000000000000000000000000000000000000000000000000815260040161089e9061203b565b60405180910390fd5b600073ffffffffffffffffffffffffffffffffffffffff168473ffffffffffffffffffffffffffffffffffffffff1603610916576040517f08c379a000000000000000000000000000000000000000000000000000000000815260040161090d906120cd565b60405180910390fd5b600061092061085b565b9050610930818787878787610f8b565b60005b8451811015610ae157600085828151811061095157610950611f23565b5b6020026020010151905060008583815181106109705761096f611f23565b5b60200260200101519050600080600084815260200190815260200160002060008b73ffffffffffffffffffffffffffffffffffffffff1673ffffffffffffffffffffffffffffffffffffffff16815260200190815260200160002054905081811015610a11576040517f08c379a0000000000000000000000000000000000000000000000000000000008152600401610a089061215f565b60405180910390fd5b81810360008085815260200190815260200160002060008c73ffffffffffffffffffffffffffffffffffffffff1673ffffffffffffffffffffffffffffffffffffffff168152602001908152602001600020819055508160008085815260200190815260200160002060008b73ffffffffffffffffffffffffffffffffffffffff1673ffffffffffffffffffffffffffffffffffffffff1681526020019081526020016000206000828254610ac6919061217f565b9250508190555050505080610ada90611f81565b9050610933565b508473ffffffffffffffffffffffffffffffffffffffff168673ffffffffffffffffffffffffffffffffffffffff168273ffffffffffffffffffffffffffffffffffffffff167f4a39dc06d4c0dbc64b70af90fd698a233a518aa5d07e595d983b8c0526c8f7fb8787604051610b589291906121d5565b60405180910390a4610b6e818787878787610f93565b610b7c818787878787610f9b565b505050505050565b8173ffffffffffffffffffffffffffffffffffffffff168373ffffffffffffffffffffffffffffffffffffffff1603610bf2576040517f08c379a0000000000000000000000000000000000000000000000000000000008152600401610be99061227e565b60405180910390fd5b80600160008573ffffffffffffffffffffffffffffffffffffffff1673ffffffffffffffffffffffffffffffffffffffff16815260200190815260200160002060008473ffffffffffffffffffffffffffffffffffffffff1673ffffffffffffffffffffffffffffffffffffffff16815260200190815260200160002060006101000a81548160ff0219169083151502179055508173ffffffffffffffffffffffffffffffffffffffff168373ffffffffffffffffffffffffffffffffffffffff167f17307eab39ab6107e8899845ad3d59bd9653f200f220920489ca2b5937696c3183604051610ce39190611598565b60405180910390a3505050565b600073ffffffffffffffffffffffffffffffffffffffff168473ffffffffffffffffffffffffffffffffffffffff1603610d5f576040517f08c379a0000000000000000000000000000000000000000000000000000000008152600401610d56906120cd565b60405180910390fd5b6000610d6961085b565b90506000610d7685611172565b90506000610d8385611172565b9050610d93838989858589610f8b565b600080600088815260200190815260200160002060008a73ffffffffffffffffffffffffffffffffffffffff1673ffffffffffffffffffffffffffffffffffffffff16815260200190815260200160002054905085811015610e2a576040517f08c379a0000000000000000000000000000000000000000000000000000000008152600401610e219061215f565b60405180910390fd5b85810360008089815260200190815260200160002060008b73ffffffffffffffffffffffffffffffffffffffff1673ffffffffffffffffffffffffffffffffffffffff168152602001908152602001600020819055508560008089815260200190815260200160002060008a73ffffffffffffffffffffffffffffffffffffffff1673ffffffffffffffffffffffffffffffffffffffff1681526020019081526020016000206000828254610edf919061217f565b925050819055508773ffffffffffffffffffffffffffffffffffffffff168973ffffffffffffffffffffffffffffffffffffffff168573ffffffffffffffffffffffffffffffffffffffff167fc3d58168c5ae7397731d063d5bbf3d657854427343f4c083240f7aacaa2d0f628a8a604051610f5c92919061229e565b60405180910390a4610f72848a8a86868a610f93565b610f80848a8a8a8a8a6111ec565b505050505050505050565b505050505050565b505050505050565b610fba8473ffffffffffffffffffffffffffffffffffffffff166113c3565b1561116a578373ffffffffffffffffffffffffffffffffffffffff1663bc197c8187878686866040518663ffffffff1660e01b815260040161100095949392919061232b565b6020604051808303816000875af192505050801561103c57506040513d601f19601f8201168201806040525081019061103991906123a8565b60015b6110e1576110486123e2565b806308c379a0036110a4575061105c612404565b8061106757506110a6565b806040517f08c379a000000000000000000000000000000000000000000000000000000000815260040161109b9190611679565b60405180910390fd5b505b6040517f08c379a00000000000000000000000000000000000000000000000000000000081526004016110d890612506565b60405180910390fd5b63bc197c8160e01b7bffffffffffffffffffffffffffffffffffffffffffffffffffffffff1916817bffffffffffffffffffffffffffffffffffffffffffffffffffffffff191614611168576040517f08c379a000000000000000000000000000000000000000000000000000000000815260040161115f90612598565b60405180910390fd5b505b505050505050565b60606000600167ffffffffffffffff811115611191576111906116a0565b5b6040519080825280602002602001820160405280156111bf5781602001602082028036833780820191505090505b50905082816000815181106111d7576111d6611f23565b5b60200260200101818152505080915050919050565b61120b8473ffffffffffffffffffffffffffffffffffffffff166113c3565b156113bb578373ffffffffffffffffffffffffffffffffffffffff1663f23a6e6187878686866040518663ffffffff1660e01b81526004016112519594939291906125b8565b6020604051808303816000875af192505050801561128d57506040513d601f19601f8201168201806040525081019061128a91906123a8565b60015b611332576112996123e2565b806308c379a0036112f557506112ad612404565b806112b857506112f7565b806040517f08c379a00000000000000000000000000000000000000000000000000000000081526004016112ec9190611679565b60405180910390fd5b505b6040517f08c379a000000000000000000000000000000000000000000000000000000000815260040161132990612506565b60405180910390fd5b63f23a6e6160e01b7bffffffffffffffffffffffffffffffffffffffffffffffffffffffff1916817bffffffffffffffffffffffffffffffffffffffffffffffffffffffff1916146113b9576040517f08c379a00000000000000000000000000000000000000000000000000000000081526004016113b090612598565b60405180910390fd5b505b505050505050565b6000808273ffffffffffffffffffffffffffffffffffffffff163b119050919050565b6000604051905090565b600080fd5b600080fd5b600073ffffffffffffffffffffffffffffffffffffffff82169050919050565b6000611425826113fa565b9050919050565b6114358161141a565b811461144057600080fd5b50565b6000813590506114528161142c565b92915050565b6000819050919050565b61146b81611458565b811461147657600080fd5b50565b60008135905061148881611462565b92915050565b600080604083850312156114a5576114a46113f0565b5b60006114b385828601611443565b92505060206114c485828601611479565b9150509250929050565b6114d781611458565b82525050565b60006020820190506114f260008301846114ce565b92915050565b60007fffffffff0000000000000000000000000000000000000000000000000000000082169050919050565b61152d816114f8565b811461153857600080fd5b50565b60008135905061154a81611524565b92915050565b600060208284031215611566576115656113f0565b5b60006115748482850161153b565b91505092915050565b60008115159050919050565b6115928161157d565b82525050565b60006020820190506115ad6000830184611589565b92915050565b6000602082840312156115c9576115c86113f0565b5b60006115d784828501611479565b91505092915050565b600081519050919050565b600082825260208201905092915050565b60005b8381101561161a5780820151818401526020810190506115ff565b83811115611629576000848401525b50505050565b6000601f19601f8301169050919050565b600061164b826115e0565b61165581856115eb565b93506116658185602086016115fc565b61166e8161162f565b840191505092915050565b600060208201905081810360008301526116938184611640565b905092915050565b600080fd5b7f4e487b7100000000000000000000000000000000000000000000000000000000600052604160045260246000fd5b6116d88261162f565b810181811067ffffffffffffffff821117156116f7576116f66116a0565b5b80604052505050565b600061170a6113e6565b905061171682826116cf565b919050565b600067ffffffffffffffff821115611736576117356116a0565b5b602082029050602081019050919050565b600080fd5b600061175f61175a8461171b565b611700565b9050808382526020820190506020840283018581111561178257611781611747565b5b835b818110156117ab57806117978882611479565b845260208401935050602081019050611784565b5050509392505050565b600082601f8301126117ca576117c961169b565b5b81356117da84826020860161174c565b91505092915050565b600080fd5b600067ffffffffffffffff821115611803576118026116a0565b5b61180c8261162f565b9050602081019050919050565b82818337600083830152505050565b600061183b611836846117e8565b611700565b905082815260208101848484011115611857576118566117e3565b5b611862848285611819565b509392505050565b600082601f83011261187f5761187e61169b565b5b813561188f848260208601611828565b91505092915050565b600080600080600060a086880312156118b4576118b36113f0565b5b60006118c288828901611443565b95505060206118d388828901611443565b945050604086013567ffffffffffffffff8111156118f4576118f36113f5565b5b611900888289016117b5565b935050606086013567ffffffffffffffff811115611921576119206113f5565b5b61192d888289016117b5565b925050608086013567ffffffffffffffff81111561194e5761194d6113f5565b5b61195a8882890161186a565b9150509295509295909350565b600067ffffffffffffffff821115611982576119816116a0565b5b602082029050602081019050919050565b60006119a66119a184611967565b611700565b905080838252602082019050602084028301858111156119c9576119c8611747565b5b835b818110156119f257806119de8882611443565b8452602084019350506020810190506119cb565b5050509392505050565b600082601f830112611a1157611a1061169b565b5b8135611a21848260208601611993565b91505092915050565b60008060408385031215611a4157611a406113f0565b5b600083013567ffffffffffffffff811115611a5f57611a5e6113f5565b5b611a6b858286016119fc565b925050602083013567ffffffffffffffff811115611a8c57611a8b6113f5565b5b611a98858286016117b5565b9150509250929050565b600081519050919050565b600082825260208201905092915050565b6000819050602082019050919050565b611ad781611458565b82525050565b6000611ae98383611ace565b60208301905092915050565b6000602082019050919050565b6000611b0d82611aa2565b611b178185611aad565b9350611b2283611abe565b8060005b83811015611b53578151611b3a8882611add565b9750611b4583611af5565b925050600181019050611b26565b5085935050505092915050565b60006020820190508181036000830152611b7a8184611b02565b905092915050565b600063ffffffff82169050919050565b611b9b81611b82565b82525050565b6000604082019050611bb660008301856114ce565b611bc36020830184611b92565b9392505050565b611bd38161157d565b8114611bde57600080fd5b50565b600081359050611bf081611bca565b92915050565b60008060408385031215611c0d57611c0c6113f0565b5b6000611c1b85828601611443565b9250506020611c2c85828601611be1565b9150509250929050565b60008060408385031215611c4d57611c4c6113f0565b5b6000611c5b85828601611443565b9250506020611c6c85828601611443565b9150509250929050565b600080600080600060a08688031215611c9257611c916113f0565b5b6000611ca088828901611443565b9550506020611cb188828901611443565b9450506040611cc288828901611479565b9350506060611cd388828901611479565b925050608086013567ffffffffffffffff811115611cf457611cf36113f5565b5b611d008882890161186a565b9150509295509295909350565b7f455243313135353a2061646472657373207a65726f206973206e6f742061207660008201527f616c6964206f776e657200000000000000000000000000000000000000000000602082015250565b6000611d69602a836115eb565b9150611d7482611d0d565b604082019050919050565b60006020820190508181036000830152611d9881611d5c565b9050919050565b7f4e487b7100000000000000000000000000000000000000000000000000000000600052602260045260246000fd5b60006002820490506001821680611de657607f821691505b602082108103611df957611df8611d9f565b5b50919050565b7f455243313135353a2063616c6c6572206973206e6f7420746f6b656e206f776e60008201527f6572206e6f7220617070726f7665640000000000000000000000000000000000602082015250565b6000611e5b602f836115eb565b9150611e6682611dff565b604082019050919050565b60006020820190508181036000830152611e8a81611e4e565b9050919050565b7f455243313135353a206163636f756e747320616e6420696473206c656e67746860008201527f206d69736d617463680000000000000000000000000000000000000000000000602082015250565b6000611eed6029836115eb565b9150611ef882611e91565b604082019050919050565b60006020820190508181036000830152611f1c81611ee0565b9050919050565b7f4e487b7100000000000000000000000000000000000000000000000000000000600052603260045260246000fd5b7f4e487b7100000000000000000000000000000000000000000000000000000000600052601160045260246000fd5b6000611f8c82611458565b91507fffffffffffffffffffffffffffffffffffffffffffffffffffffffffffffffff8203611fbe57611fbd611f52565b5b600182019050919050565b7f455243313135353a2069647320616e6420616d6f756e7473206c656e6774682060008201527f6d69736d61746368000000000000000000000000000000000000000000000000602082015250565b60006120256028836115eb565b915061203082611fc9565b604082019050919050565b6000602082019050818103600083015261205481612018565b9050919050565b7f455243313135353a207472616e7366657220746f20746865207a65726f20616460008201527f6472657373000000000000000000000000000000000000000000000000000000602082015250565b60006120b76025836115eb565b91506120c28261205b565b604082019050919050565b600060208201905081810360008301526120e6816120aa565b9050919050565b7f455243313135353a20696e73756666696369656e742062616c616e636520666f60008201527f72207472616e7366657200000000000000000000000000000000000000000000602082015250565b6000612149602a836115eb565b9150612154826120ed565b604082019050919050565b600060208201905081810360008301526121788161213c565b9050919050565b600061218a82611458565b915061219583611458565b9250827fffffffffffffffffffffffffffffffffffffffffffffffffffffffffffffffff038211156121ca576121c9611f52565b5b828201905092915050565b600060408201905081810360008301526121ef8185611b02565b905081810360208301526122038184611b02565b90509392505050565b7f455243313135353a2073657474696e6720617070726f76616c2073746174757360008201527f20666f722073656c660000000000000000000000000000000000000000000000602082015250565b60006122686029836115eb565b91506122738261220c565b604082019050919050565b600060208201905081810360008301526122978161225b565b9050919050565b60006040820190506122b360008301856114ce565b6122c060208301846114ce565b9392505050565b6122d08161141a565b82525050565b600081519050919050565b600082825260208201905092915050565b60006122fd826122d6565b61230781856122e1565b93506123178185602086016115fc565b6123208161162f565b840191505092915050565b600060a08201905061234060008301886122c7565b61234d60208301876122c7565b818103604083015261235f8186611b02565b905081810360608301526123738185611b02565b9050818103608083015261238781846122f2565b90509695505050505050565b6000815190506123a281611524565b92915050565b6000602082840312156123be576123bd6113f0565b5b60006123cc84828501612393565b91505092915050565b60008160e01c9050919050565b600060033d11156124015760046000803e6123fe6000516123d5565b90505b90565b600060443d10612491576124166113e6565b60043d036004823e80513d602482011167ffffffffffffffff8211171561243e575050612491565b808201805167ffffffffffffffff81111561245c5750505050612491565b80602083010160043d038501811115612479575050505050612491565b612488826020018501866116cf565b82955050505050505b90565b7f455243313135353a207472616e7366657220746f206e6f6e204552433131353560008201527f526563656976657220696d706c656d656e746572000000000000000000000000602082015250565b60006124f06034836115eb565b91506124fb82612494565b604082019050919050565b6000602082019050818103600083015261251f816124e3565b9050919050565b7f455243313135353a204552433131353552656365697665722072656a6563746560008201527f6420746f6b656e73000000000000000000000000000000000000000000000000602082015250565b60006125826028836115eb565b915061258d82612526565b604082019050919050565b600060208201905081810360008301526125b181612575565b9050919050565b600060a0820190506125cd60008301886122c7565b6125da60208301876122c7565b6125e760408301866114ce565b6125f460608301856114ce565b818103608083015261260681846122f2565b9050969550505050505056fea26469706673582212200d8e7ae21e4461475c9cf526973fced5861eaabac6b528bb8fd09f799a215bd064736f6c634300080f0033",
  "immutableReferences": {},
  "source": "// SPDX-License-Identifier: MIT\npragma solidity >=0.8.7;\n\nimport \"@openzeppelin/contracts/token/ERC1155/ERC1155.sol\";\n\ncontract GameItems is ERC1155 {\n    uint public constant CommonEgg = 2 ** 10 - 2;\n    uint public constant RareEgg = 2 ** 10 - 3;\n    struct Card {\n        uint dna;\n        uint32 readyTime;\n    }\n    Card[] public listCard; \n\n    constructor() ERC1155(\"\") {}\n\n    modifier isEgg(uint _nftId) {\n        require(_nftId >= 2**10 - 3, \"user cannot mint this nft\");\n        _;\n    }\n\n    function _userMint(uint _nftId) internal isEgg(_nftId) {\n        _mint(msg.sender, _nftId, 1, \"\");\n    }\n}",
  "sourcePath": "/home/ca00691/Desktop/basic-game-card/contracts/Item.sol",
  "compiler": {
    "name": "solc",
    "version": "0.8.15+commit.e14f2714.Emscripten.clang"
  },
  "schemaVersion": "3.4.8",
  "updatedAt": "2022-07-19T09:00:15.843Z",
  "devdoc": {
    "kind": "dev",
    "methods": {
      "balanceOf(address,uint256)": {
        "details": "See {IERC1155-balanceOf}. Requirements: - `account` cannot be the zero address."
      },
      "balanceOfBatch(address[],uint256[])": {
        "details": "See {IERC1155-balanceOfBatch}. Requirements: - `accounts` and `ids` must have the same length."
      },
      "isApprovedForAll(address,address)": {
        "details": "See {IERC1155-isApprovedForAll}."
      },
      "safeBatchTransferFrom(address,address,uint256[],uint256[],bytes)": {
        "details": "See {IERC1155-safeBatchTransferFrom}."
      },
      "safeTransferFrom(address,address,uint256,uint256,bytes)": {
        "details": "See {IERC1155-safeTransferFrom}."
      },
      "setApprovalForAll(address,bool)": {
        "details": "See {IERC1155-setApprovalForAll}."
      },
      "supportsInterface(bytes4)": {
        "details": "See {IERC165-supportsInterface}."
      },
      "uri(uint256)": {
        "details": "See {IERC1155MetadataURI-uri}. This implementation returns the same URI for *all* token types. It relies on the token type ID substitution mechanism https://eips.ethereum.org/EIPS/eip-1155#metadata[defined in the EIP]. Clients calling this function must replace the `\\{id\\}` substring with the actual token type ID."
      }
    },
    "version": 1
  },
  "userdoc": {
    "kind": "user",
    "methods": {},
    "version": 1
  }
}